{
	"contracts/DonateCrypto.sol": {
		"DonateCrypto": {
			"abi": [
				{
					"inputs": [
						{
							"internalType": "string",
							"name": "title",
							"type": "string"
						},
						{
							"internalType": "string",
							"name": "description",
							"type": "string"
						},
						{
							"internalType": "string",
							"name": "videoUrl",
							"type": "string"
						},
						{
							"internalType": "string",
							"name": "imageUrl",
							"type": "string"
						}
					],
					"name": "addCampaign",
					"outputs": [],
					"stateMutability": "nonpayable",
					"type": "function"
				},
				{
					"inputs": [
						{
							"internalType": "uint256",
							"name": "",
							"type": "uint256"
						}
					],
					"name": "campaigns",
					"outputs": [
						{
							"internalType": "address",
							"name": "author",
							"type": "address"
						},
						{
							"internalType": "string",
							"name": "title",
							"type": "string"
						},
						{
							"internalType": "string",
							"name": "description",
							"type": "string"
						},
						{
							"internalType": "string",
							"name": "videoUrl",
							"type": "string"
						},
						{
							"internalType": "string",
							"name": "imageUrl",
							"type": "string"
						},
						{
							"internalType": "uint256",
							"name": "balance",
							"type": "uint256"
						},
						{
							"internalType": "bool",
							"name": "active",
							"type": "bool"
						}
					],
					"stateMutability": "view",
					"type": "function"
				},
				{
					"inputs": [
						{
							"internalType": "uint256",
							"name": "id",
							"type": "uint256"
						}
					],
					"name": "donate",
					"outputs": [],
					"stateMutability": "payable",
					"type": "function"
				},
				{
					"inputs": [],
					"name": "fee",
					"outputs": [
						{
							"internalType": "uint256",
							"name": "",
							"type": "uint256"
						}
					],
					"stateMutability": "view",
					"type": "function"
				},
				{
					"inputs": [],
					"name": "nextId",
					"outputs": [
						{
							"internalType": "uint256",
							"name": "",
							"type": "uint256"
						}
					],
					"stateMutability": "view",
					"type": "function"
				},
				{
					"inputs": [
						{
							"internalType": "uint256",
							"name": "id",
							"type": "uint256"
						}
					],
					"name": "withdraw",
					"outputs": [],
					"stateMutability": "nonpayable",
					"type": "function"
				}
			],
			"devdoc": {
				"kind": "dev",
				"methods": {},
				"version": 1
			},
			"evm": {
				"assembly": "    /* \"contracts/DonateCrypto.sol\":327:2318  contract DonateCrypto {... */\n  mstore(0x40, 0x80)\n    /* \"contracts/DonateCrypto.sol\":447:450  100 */\n  0x64\n    /* \"contracts/DonateCrypto.sol\":425:450  uint256  public fee = 100 */\n  0x00\n  sstore\n    /* \"contracts/DonateCrypto.sol\":539:540  0 */\n  0x00\n    /* \"contracts/DonateCrypto.sol\":515:540  uint256 public nextId = 0 */\n  0x01\n  sstore\n    /* \"contracts/DonateCrypto.sol\":327:2318  contract DonateCrypto {... */\n  callvalue\n  dup1\n  iszero\n  tag_1\n  jumpi\n  0x00\n  dup1\n  revert\ntag_1:\n  pop\n  dataSize(sub_0)\n  dup1\n  dataOffset(sub_0)\n  0x00\n  codecopy\n  0x00\n  return\nstop\n\nsub_0: assembly {\n        /* \"contracts/DonateCrypto.sol\":327:2318  contract DonateCrypto {... */\n      mstore(0x40, 0x80)\n      jumpi(tag_1, lt(calldatasize, 0x04))\n      shr(0xe0, calldataload(0x00))\n      dup1\n      0x141961bc\n      eq\n      tag_2\n      jumpi\n      dup1\n      0x2e1a7d4d\n      eq\n      tag_3\n      jumpi\n      dup1\n      0x61b8ce8c\n      eq\n      tag_4\n      jumpi\n      dup1\n      0xddca3f43\n      eq\n      tag_5\n      jumpi\n      dup1\n      0xec671486\n      eq\n      tag_6\n      jumpi\n      dup1\n      0xf14faf6f\n      eq\n      tag_7\n      jumpi\n    tag_1:\n      0x00\n      dup1\n      revert\n        /* \"contracts/DonateCrypto.sol\":588:633  mapping(uint256 => Campaign) public campaigns */\n    tag_2:\n      callvalue\n      dup1\n      iszero\n      tag_8\n      jumpi\n      0x00\n      dup1\n      revert\n    tag_8:\n      pop\n      tag_9\n      0x04\n      dup1\n      calldatasize\n      sub\n      dup2\n      add\n      swap1\n      tag_10\n      swap2\n      swap1\n      tag_11\n      jump\t// in\n    tag_10:\n      tag_12\n      jump\t// in\n    tag_9:\n      mload(0x40)\n      tag_13\n      swap8\n      swap7\n      swap6\n      swap5\n      swap4\n      swap3\n      swap2\n      swap1\n      tag_14\n      jump\t// in\n    tag_13:\n      mload(0x40)\n      dup1\n      swap2\n      sub\n      swap1\n      return\n        /* \"contracts/DonateCrypto.sol\":1941:2313  function withdraw(uint256 id) public  {... */\n    tag_3:\n      callvalue\n      dup1\n      iszero\n      tag_15\n      jumpi\n      0x00\n      dup1\n      revert\n    tag_15:\n      pop\n      tag_16\n      0x04\n      dup1\n      calldatasize\n      sub\n      dup2\n      add\n      swap1\n      tag_17\n      swap2\n      swap1\n      tag_11\n      jump\t// in\n    tag_17:\n      tag_18\n      jump\t// in\n    tag_16:\n      stop\n        /* \"contracts/DonateCrypto.sol\":515:540  uint256 public nextId = 0 */\n    tag_4:\n      callvalue\n      dup1\n      iszero\n      tag_19\n      jumpi\n      0x00\n      dup1\n      revert\n    tag_19:\n      pop\n      tag_20\n      tag_21\n      jump\t// in\n    tag_20:\n      mload(0x40)\n      tag_22\n      swap2\n      swap1\n      tag_23\n      jump\t// in\n    tag_22:\n      mload(0x40)\n      dup1\n      swap2\n      sub\n      swap1\n      return\n        /* \"contracts/DonateCrypto.sol\":425:450  uint256  public fee = 100 */\n    tag_5:\n      callvalue\n      dup1\n      iszero\n      tag_24\n      jumpi\n      0x00\n      dup1\n      revert\n    tag_24:\n      pop\n      tag_25\n      tag_26\n      jump\t// in\n    tag_25:\n      mload(0x40)\n      tag_27\n      swap2\n      swap1\n      tag_23\n      jump\t// in\n    tag_27:\n      mload(0x40)\n      dup1\n      swap2\n      sub\n      swap1\n      return\n        /* \"contracts/DonateCrypto.sol\":729:1472  function addCampaign(string  calldata title, string calldata description , string calldata videoUrl, string calldata imageUrl ) public {... */\n    tag_6:\n      callvalue\n      dup1\n      iszero\n      tag_28\n      jumpi\n      0x00\n      dup1\n      revert\n    tag_28:\n      pop\n      tag_29\n      0x04\n      dup1\n      calldatasize\n      sub\n      dup2\n      add\n      swap1\n      tag_30\n      swap2\n      swap1\n      tag_31\n      jump\t// in\n    tag_30:\n      tag_32\n      jump\t// in\n    tag_29:\n      stop\n        /* \"contracts/DonateCrypto.sol\":1566:1931  function donate(uint256 id) public payable  {... */\n    tag_7:\n      tag_33\n      0x04\n      dup1\n      calldatasize\n      sub\n      dup2\n      add\n      swap1\n      tag_34\n      swap2\n      swap1\n      tag_11\n      jump\t// in\n    tag_34:\n      tag_35\n      jump\t// in\n    tag_33:\n      stop\n        /* \"contracts/DonateCrypto.sol\":588:633  mapping(uint256 => Campaign) public campaigns */\n    tag_12:\n      mstore(0x20, 0x02)\n      dup1\n      0x00\n      mstore\n      keccak256(0x00, 0x40)\n      0x00\n      swap2\n      pop\n      swap1\n      pop\n      dup1\n      0x00\n      add\n      0x00\n      swap1\n      sload\n      swap1\n      0x0100\n      exp\n      swap1\n      div\n      0xffffffffffffffffffffffffffffffffffffffff\n      and\n      swap1\n      dup1\n      0x01\n      add\n      dup1\n      sload\n      tag_36\n      swap1\n      tag_37\n      jump\t// in\n    tag_36:\n      dup1\n      0x1f\n      add\n      0x20\n      dup1\n      swap2\n      div\n      mul\n      0x20\n      add\n      mload(0x40)\n      swap1\n      dup2\n      add\n      0x40\n      mstore\n      dup1\n      swap3\n      swap2\n      swap1\n      dup2\n      dup2\n      mstore\n      0x20\n      add\n      dup3\n      dup1\n      sload\n      tag_38\n      swap1\n      tag_37\n      jump\t// in\n    tag_38:\n      dup1\n      iszero\n      tag_39\n      jumpi\n      dup1\n      0x1f\n      lt\n      tag_40\n      jumpi\n      0x0100\n      dup1\n      dup4\n      sload\n      div\n      mul\n      dup4\n      mstore\n      swap2\n      0x20\n      add\n      swap2\n      jump(tag_39)\n    tag_40:\n      dup3\n      add\n      swap2\n      swap1\n      0x00\n      mstore\n      keccak256(0x00, 0x20)\n      swap1\n    tag_41:\n      dup2\n      sload\n      dup2\n      mstore\n      swap1\n      0x01\n      add\n      swap1\n      0x20\n      add\n      dup1\n      dup4\n      gt\n      tag_41\n      jumpi\n      dup3\n      swap1\n      sub\n      0x1f\n      and\n      dup3\n      add\n      swap2\n    tag_39:\n      pop\n      pop\n      pop\n      pop\n      pop\n      swap1\n      dup1\n      0x02\n      add\n      dup1\n      sload\n      tag_42\n      swap1\n      tag_37\n      jump\t// in\n    tag_42:\n      dup1\n      0x1f\n      add\n      0x20\n      dup1\n      swap2\n      div\n      mul\n      0x20\n      add\n      mload(0x40)\n      swap1\n      dup2\n      add\n      0x40\n      mstore\n      dup1\n      swap3\n      swap2\n      swap1\n      dup2\n      dup2\n      mstore\n      0x20\n      add\n      dup3\n      dup1\n      sload\n      tag_43\n      swap1\n      tag_37\n      jump\t// in\n    tag_43:\n      dup1\n      iszero\n      tag_44\n      jumpi\n      dup1\n      0x1f\n      lt\n      tag_45\n      jumpi\n      0x0100\n      dup1\n      dup4\n      sload\n      div\n      mul\n      dup4\n      mstore\n      swap2\n      0x20\n      add\n      swap2\n      jump(tag_44)\n    tag_45:\n      dup3\n      add\n      swap2\n      swap1\n      0x00\n      mstore\n      keccak256(0x00, 0x20)\n      swap1\n    tag_46:\n      dup2\n      sload\n      dup2\n      mstore\n      swap1\n      0x01\n      add\n      swap1\n      0x20\n      add\n      dup1\n      dup4\n      gt\n      tag_46\n      jumpi\n      dup3\n      swap1\n      sub\n      0x1f\n      and\n      dup3\n      add\n      swap2\n    tag_44:\n      pop\n      pop\n      pop\n      pop\n      pop\n      swap1\n      dup1\n      0x03\n      add\n      dup1\n      sload\n      tag_47\n      swap1\n      tag_37\n      jump\t// in\n    tag_47:\n      dup1\n      0x1f\n      add\n      0x20\n      dup1\n      swap2\n      div\n      mul\n      0x20\n      add\n      mload(0x40)\n      swap1\n      dup2\n      add\n      0x40\n      mstore\n      dup1\n      swap3\n      swap2\n      swap1\n      dup2\n      dup2\n      mstore\n      0x20\n      add\n      dup3\n      dup1\n      sload\n      tag_48\n      swap1\n      tag_37\n      jump\t// in\n    tag_48:\n      dup1\n      iszero\n      tag_49\n      jumpi\n      dup1\n      0x1f\n      lt\n      tag_50\n      jumpi\n      0x0100\n      dup1\n      dup4\n      sload\n      div\n      mul\n      dup4\n      mstore\n      swap2\n      0x20\n      add\n      swap2\n      jump(tag_49)\n    tag_50:\n      dup3\n      add\n      swap2\n      swap1\n      0x00\n      mstore\n      keccak256(0x00, 0x20)\n      swap1\n    tag_51:\n      dup2\n      sload\n      dup2\n      mstore\n      swap1\n      0x01\n      add\n      swap1\n      0x20\n      add\n      dup1\n      dup4\n      gt\n      tag_51\n      jumpi\n      dup3\n      swap1\n      sub\n      0x1f\n      and\n      dup3\n      add\n      swap2\n    tag_49:\n      pop\n      pop\n      pop\n      pop\n      pop\n      swap1\n      dup1\n      0x04\n      add\n      dup1\n      sload\n      tag_52\n      swap1\n      tag_37\n      jump\t// in\n    tag_52:\n      dup1\n      0x1f\n      add\n      0x20\n      dup1\n      swap2\n      div\n      mul\n      0x20\n      add\n      mload(0x40)\n      swap1\n      dup2\n      add\n      0x40\n      mstore\n      dup1\n      swap3\n      swap2\n      swap1\n      dup2\n      dup2\n      mstore\n      0x20\n      add\n      dup3\n      dup1\n      sload\n      tag_53\n      swap1\n      tag_37\n      jump\t// in\n    tag_53:\n      dup1\n      iszero\n      tag_54\n      jumpi\n      dup1\n      0x1f\n      lt\n      tag_55\n      jumpi\n      0x0100\n      dup1\n      dup4\n      sload\n      div\n      mul\n      dup4\n      mstore\n      swap2\n      0x20\n      add\n      swap2\n      jump(tag_54)\n    tag_55:\n      dup3\n      add\n      swap2\n      swap1\n      0x00\n      mstore\n      keccak256(0x00, 0x20)\n      swap1\n    tag_56:\n      dup2\n      sload\n      dup2\n      mstore\n      swap1\n      0x01\n      add\n      swap1\n      0x20\n      add\n      dup1\n      dup4\n      gt\n      tag_56\n      jumpi\n      dup3\n      swap1\n      sub\n      0x1f\n      and\n      dup3\n      add\n      swap2\n    tag_54:\n      pop\n      pop\n      pop\n      pop\n      pop\n      swap1\n      dup1\n      0x05\n      add\n      sload\n      swap1\n      dup1\n      0x06\n      add\n      0x00\n      swap1\n      sload\n      swap1\n      0x0100\n      exp\n      swap1\n      div\n      0xff\n      and\n      swap1\n      pop\n      dup8\n      jump\t// out\n        /* \"contracts/DonateCrypto.sol\":1941:2313  function withdraw(uint256 id) public  {... */\n    tag_18:\n        /* \"contracts/DonateCrypto.sol\":1990:2014  Campaign memory campaign */\n      0x00\n        /* \"contracts/DonateCrypto.sol\":2017:2026  campaigns */\n      0x02\n        /* \"contracts/DonateCrypto.sol\":2017:2030  campaigns[id] */\n      0x00\n        /* \"contracts/DonateCrypto.sol\":2027:2029  id */\n      dup4\n        /* \"contracts/DonateCrypto.sol\":2017:2030  campaigns[id] */\n      dup2\n      mstore\n      0x20\n      add\n      swap1\n      dup2\n      mstore\n      0x20\n      add\n      0x00\n      keccak256\n        /* \"contracts/DonateCrypto.sol\":1990:2030  Campaign memory campaign = campaigns[id] */\n      mload(0x40)\n      dup1\n      0xe0\n      add\n      0x40\n      mstore\n      swap1\n      dup2\n      0x00\n      dup3\n      add\n      0x00\n      swap1\n      sload\n      swap1\n      0x0100\n      exp\n      swap1\n      div\n      0xffffffffffffffffffffffffffffffffffffffff\n      and\n      0xffffffffffffffffffffffffffffffffffffffff\n      and\n      0xffffffffffffffffffffffffffffffffffffffff\n      and\n      dup2\n      mstore\n      0x20\n      add\n      0x01\n      dup3\n      add\n      dup1\n      sload\n      tag_58\n      swap1\n      tag_37\n      jump\t// in\n    tag_58:\n      dup1\n      0x1f\n      add\n      0x20\n      dup1\n      swap2\n      div\n      mul\n      0x20\n      add\n      mload(0x40)\n      swap1\n      dup2\n      add\n      0x40\n      mstore\n      dup1\n      swap3\n      swap2\n      swap1\n      dup2\n      dup2\n      mstore\n      0x20\n      add\n      dup3\n      dup1\n      sload\n      tag_59\n      swap1\n      tag_37\n      jump\t// in\n    tag_59:\n      dup1\n      iszero\n      tag_60\n      jumpi\n      dup1\n      0x1f\n      lt\n      tag_61\n      jumpi\n      0x0100\n      dup1\n      dup4\n      sload\n      div\n      mul\n      dup4\n      mstore\n      swap2\n      0x20\n      add\n      swap2\n      jump(tag_60)\n    tag_61:\n      dup3\n      add\n      swap2\n      swap1\n      0x00\n      mstore\n      keccak256(0x00, 0x20)\n      swap1\n    tag_62:\n      dup2\n      sload\n      dup2\n      mstore\n      swap1\n      0x01\n      add\n      swap1\n      0x20\n      add\n      dup1\n      dup4\n      gt\n      tag_62\n      jumpi\n      dup3\n      swap1\n      sub\n      0x1f\n      and\n      dup3\n      add\n      swap2\n    tag_60:\n      pop\n      pop\n      pop\n      pop\n      pop\n      dup2\n      mstore\n      0x20\n      add\n      0x02\n      dup3\n      add\n      dup1\n      sload\n      tag_63\n      swap1\n      tag_37\n      jump\t// in\n    tag_63:\n      dup1\n      0x1f\n      add\n      0x20\n      dup1\n      swap2\n      div\n      mul\n      0x20\n      add\n      mload(0x40)\n      swap1\n      dup2\n      add\n      0x40\n      mstore\n      dup1\n      swap3\n      swap2\n      swap1\n      dup2\n      dup2\n      mstore\n      0x20\n      add\n      dup3\n      dup1\n      sload\n      tag_64\n      swap1\n      tag_37\n      jump\t// in\n    tag_64:\n      dup1\n      iszero\n      tag_65\n      jumpi\n      dup1\n      0x1f\n      lt\n      tag_66\n      jumpi\n      0x0100\n      dup1\n      dup4\n      sload\n      div\n      mul\n      dup4\n      mstore\n      swap2\n      0x20\n      add\n      swap2\n      jump(tag_65)\n    tag_66:\n      dup3\n      add\n      swap2\n      swap1\n      0x00\n      mstore\n      keccak256(0x00, 0x20)\n      swap1\n    tag_67:\n      dup2\n      sload\n      dup2\n      mstore\n      swap1\n      0x01\n      add\n      swap1\n      0x20\n      add\n      dup1\n      dup4\n      gt\n      tag_67\n      jumpi\n      dup3\n      swap1\n      sub\n      0x1f\n      and\n      dup3\n      add\n      swap2\n    tag_65:\n      pop\n      pop\n      pop\n      pop\n      pop\n      dup2\n      mstore\n      0x20\n      add\n      0x03\n      dup3\n      add\n      dup1\n      sload\n      tag_68\n      swap1\n      tag_37\n      jump\t// in\n    tag_68:\n      dup1\n      0x1f\n      add\n      0x20\n      dup1\n      swap2\n      div\n      mul\n      0x20\n      add\n      mload(0x40)\n      swap1\n      dup2\n      add\n      0x40\n      mstore\n      dup1\n      swap3\n      swap2\n      swap1\n      dup2\n      dup2\n      mstore\n      0x20\n      add\n      dup3\n      dup1\n      sload\n      tag_69\n      swap1\n      tag_37\n      jump\t// in\n    tag_69:\n      dup1\n      iszero\n      tag_70\n      jumpi\n      dup1\n      0x1f\n      lt\n      tag_71\n      jumpi\n      0x0100\n      dup1\n      dup4\n      sload\n      div\n      mul\n      dup4\n      mstore\n      swap2\n      0x20\n      add\n      swap2\n      jump(tag_70)\n    tag_71:\n      dup3\n      add\n      swap2\n      swap1\n      0x00\n      mstore\n      keccak256(0x00, 0x20)\n      swap1\n    tag_72:\n      dup2\n      sload\n      dup2\n      mstore\n      swap1\n      0x01\n      add\n      swap1\n      0x20\n      add\n      dup1\n      dup4\n      gt\n      tag_72\n      jumpi\n      dup3\n      swap1\n      sub\n      0x1f\n      and\n      dup3\n      add\n      swap2\n    tag_70:\n      pop\n      pop\n      pop\n      pop\n      pop\n      dup2\n      mstore\n      0x20\n      add\n      0x04\n      dup3\n      add\n      dup1\n      sload\n      tag_73\n      swap1\n      tag_37\n      jump\t// in\n    tag_73:\n      dup1\n      0x1f\n      add\n      0x20\n      dup1\n      swap2\n      div\n      mul\n      0x20\n      add\n      mload(0x40)\n      swap1\n      dup2\n      add\n      0x40\n      mstore\n      dup1\n      swap3\n      swap2\n      swap1\n      dup2\n      dup2\n      mstore\n      0x20\n      add\n      dup3\n      dup1\n      sload\n      tag_74\n      swap1\n      tag_37\n      jump\t// in\n    tag_74:\n      dup1\n      iszero\n      tag_75\n      jumpi\n      dup1\n      0x1f\n      lt\n      tag_76\n      jumpi\n      0x0100\n      dup1\n      dup4\n      sload\n      div\n      mul\n      dup4\n      mstore\n      swap2\n      0x20\n      add\n      swap2\n      jump(tag_75)\n    tag_76:\n      dup3\n      add\n      swap2\n      swap1\n      0x00\n      mstore\n      keccak256(0x00, 0x20)\n      swap1\n    tag_77:\n      dup2\n      sload\n      dup2\n      mstore\n      swap1\n      0x01\n      add\n      swap1\n      0x20\n      add\n      dup1\n      dup4\n      gt\n      tag_77\n      jumpi\n      dup3\n      swap1\n      sub\n      0x1f\n      and\n      dup3\n      add\n      swap2\n    tag_75:\n      pop\n      pop\n      pop\n      pop\n      pop\n      dup2\n      mstore\n      0x20\n      add\n      0x05\n      dup3\n      add\n      sload\n      dup2\n      mstore\n      0x20\n      add\n      0x06\n      dup3\n      add\n      0x00\n      swap1\n      sload\n      swap1\n      0x0100\n      exp\n      swap1\n      div\n      0xff\n      and\n      iszero\n      iszero\n      iszero\n      iszero\n      dup2\n      mstore\n      pop\n      pop\n      swap1\n      pop\n        /* \"contracts/DonateCrypto.sol\":2068:2078  msg.sender */\n      caller\n        /* \"contracts/DonateCrypto.sol\":2049:2078  campaign.author == msg.sender */\n      0xffffffffffffffffffffffffffffffffffffffff\n      and\n        /* \"contracts/DonateCrypto.sol\":2049:2057  campaign */\n      dup2\n        /* \"contracts/DonateCrypto.sol\":2049:2064  campaign.author */\n      0x00\n      add\n      mload\n        /* \"contracts/DonateCrypto.sol\":2049:2078  campaign.author == msg.sender */\n      0xffffffffffffffffffffffffffffffffffffffff\n      and\n      eq\n        /* \"contracts/DonateCrypto.sol\":2041:2109  require(campaign.author == msg.sender, \"You fo not have permission\") */\n      tag_78\n      jumpi\n      mload(0x40)\n      0x08c379a000000000000000000000000000000000000000000000000000000000\n      dup2\n      mstore\n      0x04\n      add\n      tag_79\n      swap1\n      tag_80\n      jump\t// in\n    tag_79:\n      mload(0x40)\n      dup1\n      swap2\n      sub\n      swap1\n      revert\n    tag_78:\n        /* \"contracts/DonateCrypto.sol\":2147:2151  true */\n      0x01\n        /* \"contracts/DonateCrypto.sol\":2128:2151  campaign.active == true */\n      iszero\n      iszero\n        /* \"contracts/DonateCrypto.sol\":2128:2136  campaign */\n      dup2\n        /* \"contracts/DonateCrypto.sol\":2128:2143  campaign.active */\n      0xc0\n      add\n      mload\n        /* \"contracts/DonateCrypto.sol\":2128:2151  campaign.active == true */\n      iszero\n      iszero\n      eq\n        /* \"contracts/DonateCrypto.sol\":2120:2180  require(campaign.active == true, \" This campaign is closed\") */\n      tag_81\n      jumpi\n      mload(0x40)\n      0x08c379a000000000000000000000000000000000000000000000000000000000\n      dup2\n      mstore\n      0x04\n      add\n      tag_82\n      swap1\n      tag_83\n      jump\t// in\n    tag_82:\n      mload(0x40)\n      dup1\n      swap2\n      sub\n      swap1\n      revert\n    tag_81:\n        /* \"contracts/DonateCrypto.sol\":2193:2218  address payable recipient */\n      0x00\n        /* \"contracts/DonateCrypto.sol\":2229:2237  campaign */\n      dup2\n        /* \"contracts/DonateCrypto.sol\":2229:2244  campaign.author */\n      0x00\n      add\n      mload\n        /* \"contracts/DonateCrypto.sol\":2193:2245  address payable recipient = payable(campaign.author) */\n      swap1\n      pop\n        /* \"contracts/DonateCrypto.sol\":2256:2265  recipient */\n      dup1\n        /* \"contracts/DonateCrypto.sol\":2256:2270  recipient.call */\n      0xffffffffffffffffffffffffffffffffffffffff\n      and\n        /* \"contracts/DonateCrypto.sol\":2297:2300  fee */\n      sload(0x00)\n        /* \"contracts/DonateCrypto.sol\":2278:2286  campaign */\n      dup4\n        /* \"contracts/DonateCrypto.sol\":2278:2294  campaign.balance */\n      0xa0\n      add\n      mload\n        /* \"contracts/DonateCrypto.sol\":2278:2300  campaign.balance - fee */\n      tag_84\n      swap2\n      swap1\n      tag_85\n      jump\t// in\n    tag_84:\n        /* \"contracts/DonateCrypto.sol\":2256:2305  recipient.call{value: campaign.balance - fee}(\"\") */\n      mload(0x40)\n      tag_86\n      swap1\n      tag_87\n      jump\t// in\n    tag_86:\n      0x00\n      mload(0x40)\n      dup1\n      dup4\n      sub\n      dup2\n      dup6\n      dup8\n      gas\n      call\n      swap3\n      pop\n      pop\n      pop\n      returndatasize\n      dup1\n      0x00\n      dup2\n      eq\n      tag_90\n      jumpi\n      mload(0x40)\n      swap2\n      pop\n      and(add(returndatasize, 0x3f), not(0x1f))\n      dup3\n      add\n      0x40\n      mstore\n      returndatasize\n      dup3\n      mstore\n      returndatasize\n      0x00\n      0x20\n      dup5\n      add\n      returndatacopy\n      jump(tag_89)\n    tag_90:\n      0x60\n      swap2\n      pop\n    tag_89:\n      pop\n      pop\n      pop\n        /* \"contracts/DonateCrypto.sol\":1979:2313  {... */\n      pop\n      pop\n        /* \"contracts/DonateCrypto.sol\":1941:2313  function withdraw(uint256 id) public  {... */\n      pop\n      jump\t// out\n        /* \"contracts/DonateCrypto.sol\":515:540  uint256 public nextId = 0 */\n    tag_21:\n      sload(0x01)\n      dup2\n      jump\t// out\n        /* \"contracts/DonateCrypto.sol\":425:450  uint256  public fee = 100 */\n    tag_26:\n      sload(0x00)\n      dup2\n      jump\t// out\n        /* \"contracts/DonateCrypto.sol\":729:1472  function addCampaign(string  calldata title, string calldata description , string calldata videoUrl, string calldata imageUrl ) public {... */\n    tag_32:\n        /* \"contracts/DonateCrypto.sol\":942:969  Campaign memory newCampaign */\n      tag_92\n      tag_93\n      jump\t// in\n    tag_92:\n        /* \"contracts/DonateCrypto.sol\":1000:1005  title */\n      dup9\n      dup9\n        /* \"contracts/DonateCrypto.sol\":980:1005  newCampaign.title = title */\n      dup1\n      dup1\n      0x1f\n      add\n      0x20\n      dup1\n      swap2\n      div\n      mul\n      0x20\n      add\n      mload(0x40)\n      swap1\n      dup2\n      add\n      0x40\n      mstore\n      dup1\n      swap4\n      swap3\n      swap2\n      swap1\n      dup2\n      dup2\n      mstore\n      0x20\n      add\n      dup4\n      dup4\n      dup1\n      dup3\n      dup5\n      calldatacopy\n      0x00\n      dup2\n      dup5\n      add\n      mstore\n      not(0x1f)\n      0x1f\n      dup3\n      add\n      and\n      swap1\n      pop\n      dup1\n      dup4\n      add\n      swap3\n      pop\n      pop\n      pop\n      pop\n      pop\n      pop\n      pop\n        /* \"contracts/DonateCrypto.sol\":980:991  newCampaign */\n      dup2\n        /* \"contracts/DonateCrypto.sol\":980:997  newCampaign.title */\n      0x20\n      add\n        /* \"contracts/DonateCrypto.sol\":980:1005  newCampaign.title = title */\n      dup2\n      swap1\n      mstore\n      pop\n        /* \"contracts/DonateCrypto.sol\":1042:1053  description */\n      dup7\n      dup7\n        /* \"contracts/DonateCrypto.sol\":1016:1053  newCampaign.description = description */\n      dup1\n      dup1\n      0x1f\n      add\n      0x20\n      dup1\n      swap2\n      div\n      mul\n      0x20\n      add\n      mload(0x40)\n      swap1\n      dup2\n      add\n      0x40\n      mstore\n      dup1\n      swap4\n      swap3\n      swap2\n      swap1\n      dup2\n      dup2\n      mstore\n      0x20\n      add\n      dup4\n      dup4\n      dup1\n      dup3\n      dup5\n      calldatacopy\n      0x00\n      dup2\n      dup5\n      add\n      mstore\n      not(0x1f)\n      0x1f\n      dup3\n      add\n      and\n      swap1\n      pop\n      dup1\n      dup4\n      add\n      swap3\n      pop\n      pop\n      pop\n      pop\n      pop\n      pop\n      pop\n        /* \"contracts/DonateCrypto.sol\":1016:1027  newCampaign */\n      dup2\n        /* \"contracts/DonateCrypto.sol\":1016:1039  newCampaign.description */\n      0x40\n      add\n        /* \"contracts/DonateCrypto.sol\":1016:1053  newCampaign.description = description */\n      dup2\n      swap1\n      mstore\n      pop\n        /* \"contracts/DonateCrypto.sol\":1086:1094  videoUrl */\n      dup5\n      dup5\n        /* \"contracts/DonateCrypto.sol\":1064:1094  newCampaign.videoUrl= videoUrl */\n      dup1\n      dup1\n      0x1f\n      add\n      0x20\n      dup1\n      swap2\n      div\n      mul\n      0x20\n      add\n      mload(0x40)\n      swap1\n      dup2\n      add\n      0x40\n      mstore\n      dup1\n      swap4\n      swap3\n      swap2\n      swap1\n      dup2\n      dup2\n      mstore\n      0x20\n      add\n      dup4\n      dup4\n      dup1\n      dup3\n      dup5\n      calldatacopy\n      0x00\n      dup2\n      dup5\n      add\n      mstore\n      not(0x1f)\n      0x1f\n      dup3\n      add\n      and\n      swap1\n      pop\n      dup1\n      dup4\n      add\n      swap3\n      pop\n      pop\n      pop\n      pop\n      pop\n      pop\n      pop\n        /* \"contracts/DonateCrypto.sol\":1064:1075  newCampaign */\n      dup2\n        /* \"contracts/DonateCrypto.sol\":1064:1084  newCampaign.videoUrl */\n      0x60\n      add\n        /* \"contracts/DonateCrypto.sol\":1064:1094  newCampaign.videoUrl= videoUrl */\n      dup2\n      swap1\n      mstore\n      pop\n        /* \"contracts/DonateCrypto.sol\":1128:1136  imageUrl */\n      dup3\n      dup3\n        /* \"contracts/DonateCrypto.sol\":1105:1136  newCampaign.imageUrl = imageUrl */\n      dup1\n      dup1\n      0x1f\n      add\n      0x20\n      dup1\n      swap2\n      div\n      mul\n      0x20\n      add\n      mload(0x40)\n      swap1\n      dup2\n      add\n      0x40\n      mstore\n      dup1\n      swap4\n      swap3\n      swap2\n      swap1\n      dup2\n      dup2\n      mstore\n      0x20\n      add\n      dup4\n      dup4\n      dup1\n      dup3\n      dup5\n      calldatacopy\n      0x00\n      dup2\n      dup5\n      add\n      mstore\n      not(0x1f)\n      0x1f\n      dup3\n      add\n      and\n      swap1\n      pop\n      dup1\n      dup4\n      add\n      swap3\n      pop\n      pop\n      pop\n      pop\n      pop\n      pop\n      pop\n        /* \"contracts/DonateCrypto.sol\":1105:1116  newCampaign */\n      dup2\n        /* \"contracts/DonateCrypto.sol\":1105:1125  newCampaign.imageUrl */\n      0x80\n      add\n        /* \"contracts/DonateCrypto.sol\":1105:1136  newCampaign.imageUrl = imageUrl */\n      dup2\n      swap1\n      mstore\n      pop\n        /* \"contracts/DonateCrypto.sol\":1168:1172  true */\n      0x01\n        /* \"contracts/DonateCrypto.sol\":1147:1158  newCampaign */\n      dup2\n        /* \"contracts/DonateCrypto.sol\":1147:1165  newCampaign.active */\n      0xc0\n      add\n        /* \"contracts/DonateCrypto.sol\":1147:1172  newCampaign.active = true */\n      swap1\n      iszero\n      iszero\n      swap1\n      dup2\n      iszero\n      iszero\n      dup2\n      mstore\n      pop\n      pop\n        /* \"contracts/DonateCrypto.sol\":1391:1401  msg.sender */\n      caller\n        /* \"contracts/DonateCrypto.sol\":1370:1381  newCampaign */\n      dup2\n        /* \"contracts/DonateCrypto.sol\":1370:1388  newCampaign.author */\n      0x00\n      add\n        /* \"contracts/DonateCrypto.sol\":1370:1401  newCampaign.author = msg.sender */\n      swap1\n      0xffffffffffffffffffffffffffffffffffffffff\n      and\n      swap1\n      dup2\n      0xffffffffffffffffffffffffffffffffffffffff\n      and\n      dup2\n      mstore\n      pop\n      pop\n        /* \"contracts/DonateCrypto.sol\":1414:1420  nextId */\n      0x01\n      0x00\n        /* \"contracts/DonateCrypto.sol\":1414:1422  nextId++ */\n      dup2\n      sload\n      dup1\n      swap3\n      swap2\n      swap1\n      tag_94\n      swap1\n      tag_95\n      jump\t// in\n    tag_94:\n      swap2\n      swap1\n      pop\n      sstore\n      pop\n        /* \"contracts/DonateCrypto.sol\":1453:1464  newCampaign */\n      dup1\n        /* \"contracts/DonateCrypto.sol\":1433:1442  campaigns */\n      0x02\n        /* \"contracts/DonateCrypto.sol\":1433:1450  campaigns[nextId] */\n      0x00\n        /* \"contracts/DonateCrypto.sol\":1443:1449  nextId */\n      sload(0x01)\n        /* \"contracts/DonateCrypto.sol\":1433:1450  campaigns[nextId] */\n      dup2\n      mstore\n      0x20\n      add\n      swap1\n      dup2\n      mstore\n      0x20\n      add\n      0x00\n      keccak256\n        /* \"contracts/DonateCrypto.sol\":1433:1464  campaigns[nextId] = newCampaign */\n      0x00\n      dup3\n      add\n      mload\n      dup2\n      0x00\n      add\n      exp(0x0100, 0x00)\n      dup2\n      sload\n      dup2\n      0xffffffffffffffffffffffffffffffffffffffff\n      mul\n      not\n      and\n      swap1\n      dup4\n      0xffffffffffffffffffffffffffffffffffffffff\n      and\n      mul\n      or\n      swap1\n      sstore\n      pop\n      0x20\n      dup3\n      add\n      mload\n      dup2\n      0x01\n      add\n      swap1\n      dup2\n      tag_96\n      swap2\n      swap1\n      tag_97\n      jump\t// in\n    tag_96:\n      pop\n      0x40\n      dup3\n      add\n      mload\n      dup2\n      0x02\n      add\n      swap1\n      dup2\n      tag_98\n      swap2\n      swap1\n      tag_97\n      jump\t// in\n    tag_98:\n      pop\n      0x60\n      dup3\n      add\n      mload\n      dup2\n      0x03\n      add\n      swap1\n      dup2\n      tag_99\n      swap2\n      swap1\n      tag_97\n      jump\t// in\n    tag_99:\n      pop\n      0x80\n      dup3\n      add\n      mload\n      dup2\n      0x04\n      add\n      swap1\n      dup2\n      tag_100\n      swap2\n      swap1\n      tag_97\n      jump\t// in\n    tag_100:\n      pop\n      0xa0\n      dup3\n      add\n      mload\n      dup2\n      0x05\n      add\n      sstore\n      0xc0\n      dup3\n      add\n      mload\n      dup2\n      0x06\n      add\n      exp(0x0100, 0x00)\n      dup2\n      sload\n      dup2\n      0xff\n      mul\n      not\n      and\n      swap1\n      dup4\n      iszero\n      iszero\n      mul\n      or\n      swap1\n      sstore\n      pop\n      swap1\n      pop\n      pop\n        /* \"contracts/DonateCrypto.sol\":864:1472  {... */\n      pop\n        /* \"contracts/DonateCrypto.sol\":729:1472  function addCampaign(string  calldata title, string calldata description , string calldata videoUrl, string calldata imageUrl ) public {... */\n      pop\n      pop\n      pop\n      pop\n      pop\n      pop\n      pop\n      pop\n      jump\t// out\n        /* \"contracts/DonateCrypto.sol\":1566:1931  function donate(uint256 id) public payable  {... */\n    tag_35:\n        /* \"contracts/DonateCrypto.sol\":1733:1734  0 */\n      0x00\n        /* \"contracts/DonateCrypto.sol\":1721:1730  msg.value */\n      callvalue\n        /* \"contracts/DonateCrypto.sol\":1721:1734  msg.value > 0 */\n      gt\n        /* \"contracts/DonateCrypto.sol\":1713:1789  require(msg.value > 0, \"You must send a donation value greater than zero; \") */\n      tag_102\n      jumpi\n      mload(0x40)\n      0x08c379a000000000000000000000000000000000000000000000000000000000\n      dup2\n      mstore\n      0x04\n      add\n      tag_103\n      swap1\n      tag_104\n      jump\t// in\n    tag_103:\n      mload(0x40)\n      dup1\n      swap2\n      sub\n      swap1\n      revert\n    tag_102:\n        /* \"contracts/DonateCrypto.sol\":1834:1838  true */\n      0x01\n        /* \"contracts/DonateCrypto.sol\":1810:1838  campaigns[id].active == true */\n      iszero\n      iszero\n        /* \"contracts/DonateCrypto.sol\":1810:1819  campaigns */\n      0x02\n        /* \"contracts/DonateCrypto.sol\":1810:1823  campaigns[id] */\n      0x00\n        /* \"contracts/DonateCrypto.sol\":1820:1822  id */\n      dup4\n        /* \"contracts/DonateCrypto.sol\":1810:1823  campaigns[id] */\n      dup2\n      mstore\n      0x20\n      add\n      swap1\n      dup2\n      mstore\n      0x20\n      add\n      0x00\n      keccak256\n        /* \"contracts/DonateCrypto.sol\":1810:1830  campaigns[id].active */\n      0x06\n      add\n      0x00\n      swap1\n      sload\n      swap1\n      0x0100\n      exp\n      swap1\n      div\n      0xff\n      and\n        /* \"contracts/DonateCrypto.sol\":1810:1838  campaigns[id].active == true */\n      iszero\n      iszero\n      eq\n        /* \"contracts/DonateCrypto.sol\":1802:1874  require(campaigns[id].active == true, \" Cannot donate to this campaign\") */\n      tag_105\n      jumpi\n      mload(0x40)\n      0x08c379a000000000000000000000000000000000000000000000000000000000\n      dup2\n      mstore\n      0x04\n      add\n      tag_106\n      swap1\n      tag_107\n      jump\t// in\n    tag_106:\n      mload(0x40)\n      dup1\n      swap2\n      sub\n      swap1\n      revert\n    tag_105:\n        /* \"contracts/DonateCrypto.sol\":1912:1921  msg.value */\n      callvalue\n        /* \"contracts/DonateCrypto.sol\":1887:1896  campaigns */\n      0x02\n        /* \"contracts/DonateCrypto.sol\":1887:1900  campaigns[id] */\n      0x00\n        /* \"contracts/DonateCrypto.sol\":1897:1899  id */\n      dup4\n        /* \"contracts/DonateCrypto.sol\":1887:1900  campaigns[id] */\n      dup2\n      mstore\n      0x20\n      add\n      swap1\n      dup2\n      mstore\n      0x20\n      add\n      0x00\n      keccak256\n        /* \"contracts/DonateCrypto.sol\":1887:1908  campaigns[id].balance */\n      0x05\n      add\n      0x00\n        /* \"contracts/DonateCrypto.sol\":1887:1921  campaigns[id].balance += msg.value */\n      dup3\n      dup3\n      sload\n      tag_108\n      swap2\n      swap1\n      tag_109\n      jump\t// in\n    tag_108:\n      swap3\n      pop\n      pop\n      dup2\n      swap1\n      sstore\n      pop\n        /* \"contracts/DonateCrypto.sol\":1566:1931  function donate(uint256 id) public payable  {... */\n      pop\n      jump\t// out\n    tag_93:\n      mload(0x40)\n      dup1\n      0xe0\n      add\n      0x40\n      mstore\n      dup1\n      and(0xffffffffffffffffffffffffffffffffffffffff, 0x00)\n      dup2\n      mstore\n      0x20\n      add\n      0x60\n      dup2\n      mstore\n      0x20\n      add\n      0x60\n      dup2\n      mstore\n      0x20\n      add\n      0x60\n      dup2\n      mstore\n      0x20\n      add\n      0x60\n      dup2\n      mstore\n      0x20\n      add\n      0x00\n      dup2\n      mstore\n      0x20\n      add\n      iszero(iszero(0x00))\n      dup2\n      mstore\n      pop\n      swap1\n      jump\t// out\n        /* \"#utility.yul\":88:205   */\n    tag_111:\n        /* \"#utility.yul\":197:198   */\n      0x00\n        /* \"#utility.yul\":194:195   */\n      dup1\n        /* \"#utility.yul\":187:199   */\n      revert\n        /* \"#utility.yul\":211:328   */\n    tag_112:\n        /* \"#utility.yul\":320:321   */\n      0x00\n        /* \"#utility.yul\":317:318   */\n      dup1\n        /* \"#utility.yul\":310:322   */\n      revert\n        /* \"#utility.yul\":334:411   */\n    tag_113:\n        /* \"#utility.yul\":371:378   */\n      0x00\n        /* \"#utility.yul\":400:405   */\n      dup2\n        /* \"#utility.yul\":389:405   */\n      swap1\n      pop\n        /* \"#utility.yul\":334:411   */\n      swap2\n      swap1\n      pop\n      jump\t// out\n        /* \"#utility.yul\":417:539   */\n    tag_114:\n        /* \"#utility.yul\":490:514   */\n      tag_166\n        /* \"#utility.yul\":508:513   */\n      dup2\n        /* \"#utility.yul\":490:514   */\n      tag_113\n      jump\t// in\n    tag_166:\n        /* \"#utility.yul\":483:488   */\n      dup2\n        /* \"#utility.yul\":480:515   */\n      eq\n        /* \"#utility.yul\":470:533   */\n      tag_167\n      jumpi\n        /* \"#utility.yul\":529:530   */\n      0x00\n        /* \"#utility.yul\":526:527   */\n      dup1\n        /* \"#utility.yul\":519:531   */\n      revert\n        /* \"#utility.yul\":470:533   */\n    tag_167:\n        /* \"#utility.yul\":417:539   */\n      pop\n      jump\t// out\n        /* \"#utility.yul\":545:684   */\n    tag_115:\n        /* \"#utility.yul\":591:596   */\n      0x00\n        /* \"#utility.yul\":629:635   */\n      dup2\n        /* \"#utility.yul\":616:636   */\n      calldataload\n        /* \"#utility.yul\":607:636   */\n      swap1\n      pop\n        /* \"#utility.yul\":645:678   */\n      tag_169\n        /* \"#utility.yul\":672:677   */\n      dup2\n        /* \"#utility.yul\":645:678   */\n      tag_114\n      jump\t// in\n    tag_169:\n        /* \"#utility.yul\":545:684   */\n      swap3\n      swap2\n      pop\n      pop\n      jump\t// out\n        /* \"#utility.yul\":690:1019   */\n    tag_11:\n        /* \"#utility.yul\":749:755   */\n      0x00\n        /* \"#utility.yul\":798:800   */\n      0x20\n        /* \"#utility.yul\":786:795   */\n      dup3\n        /* \"#utility.yul\":777:784   */\n      dup5\n        /* \"#utility.yul\":773:796   */\n      sub\n        /* \"#utility.yul\":769:801   */\n      slt\n        /* \"#utility.yul\":766:885   */\n      iszero\n      tag_171\n      jumpi\n        /* \"#utility.yul\":804:883   */\n      tag_172\n      tag_111\n      jump\t// in\n    tag_172:\n        /* \"#utility.yul\":766:885   */\n    tag_171:\n        /* \"#utility.yul\":924:925   */\n      0x00\n        /* \"#utility.yul\":949:1002   */\n      tag_173\n        /* \"#utility.yul\":994:1001   */\n      dup5\n        /* \"#utility.yul\":985:991   */\n      dup3\n        /* \"#utility.yul\":974:983   */\n      dup6\n        /* \"#utility.yul\":970:992   */\n      add\n        /* \"#utility.yul\":949:1002   */\n      tag_115\n      jump\t// in\n    tag_173:\n        /* \"#utility.yul\":939:1002   */\n      swap2\n      pop\n        /* \"#utility.yul\":895:1012   */\n      pop\n        /* \"#utility.yul\":690:1019   */\n      swap3\n      swap2\n      pop\n      pop\n      jump\t// out\n        /* \"#utility.yul\":1025:1151   */\n    tag_116:\n        /* \"#utility.yul\":1062:1069   */\n      0x00\n        /* \"#utility.yul\":1102:1144   */\n      0xffffffffffffffffffffffffffffffffffffffff\n        /* \"#utility.yul\":1095:1100   */\n      dup3\n        /* \"#utility.yul\":1091:1145   */\n      and\n        /* \"#utility.yul\":1080:1145   */\n      swap1\n      pop\n        /* \"#utility.yul\":1025:1151   */\n      swap2\n      swap1\n      pop\n      jump\t// out\n        /* \"#utility.yul\":1157:1253   */\n    tag_117:\n        /* \"#utility.yul\":1194:1201   */\n      0x00\n        /* \"#utility.yul\":1223:1247   */\n      tag_176\n        /* \"#utility.yul\":1241:1246   */\n      dup3\n        /* \"#utility.yul\":1223:1247   */\n      tag_116\n      jump\t// in\n    tag_176:\n        /* \"#utility.yul\":1212:1247   */\n      swap1\n      pop\n        /* \"#utility.yul\":1157:1253   */\n      swap2\n      swap1\n      pop\n      jump\t// out\n        /* \"#utility.yul\":1259:1377   */\n    tag_118:\n        /* \"#utility.yul\":1346:1370   */\n      tag_178\n        /* \"#utility.yul\":1364:1369   */\n      dup2\n        /* \"#utility.yul\":1346:1370   */\n      tag_117\n      jump\t// in\n    tag_178:\n        /* \"#utility.yul\":1341:1344   */\n      dup3\n        /* \"#utility.yul\":1334:1371   */\n      mstore\n        /* \"#utility.yul\":1259:1377   */\n      pop\n      pop\n      jump\t// out\n        /* \"#utility.yul\":1383:1482   */\n    tag_119:\n        /* \"#utility.yul\":1435:1441   */\n      0x00\n        /* \"#utility.yul\":1469:1474   */\n      dup2\n        /* \"#utility.yul\":1463:1475   */\n      mload\n        /* \"#utility.yul\":1453:1475   */\n      swap1\n      pop\n        /* \"#utility.yul\":1383:1482   */\n      swap2\n      swap1\n      pop\n      jump\t// out\n        /* \"#utility.yul\":1488:1657   */\n    tag_120:\n        /* \"#utility.yul\":1572:1583   */\n      0x00\n        /* \"#utility.yul\":1606:1612   */\n      dup3\n        /* \"#utility.yul\":1601:1604   */\n      dup3\n        /* \"#utility.yul\":1594:1613   */\n      mstore\n        /* \"#utility.yul\":1646:1650   */\n      0x20\n        /* \"#utility.yul\":1641:1644   */\n      dup3\n        /* \"#utility.yul\":1637:1651   */\n      add\n        /* \"#utility.yul\":1622:1651   */\n      swap1\n      pop\n        /* \"#utility.yul\":1488:1657   */\n      swap3\n      swap2\n      pop\n      pop\n      jump\t// out\n        /* \"#utility.yul\":1663:1802   */\n    tag_121:\n        /* \"#utility.yul\":1752:1758   */\n      dup3\n        /* \"#utility.yul\":1747:1750   */\n      dup2\n        /* \"#utility.yul\":1742:1745   */\n      dup4\n        /* \"#utility.yul\":1736:1759   */\n      mcopy\n        /* \"#utility.yul\":1793:1794   */\n      0x00\n        /* \"#utility.yul\":1784:1790   */\n      dup4\n        /* \"#utility.yul\":1779:1782   */\n      dup4\n        /* \"#utility.yul\":1775:1791   */\n      add\n        /* \"#utility.yul\":1768:1795   */\n      mstore\n        /* \"#utility.yul\":1663:1802   */\n      pop\n      pop\n      pop\n      jump\t// out\n        /* \"#utility.yul\":1808:1910   */\n    tag_122:\n        /* \"#utility.yul\":1849:1855   */\n      0x00\n        /* \"#utility.yul\":1900:1902   */\n      0x1f\n        /* \"#utility.yul\":1896:1903   */\n      not\n        /* \"#utility.yul\":1891:1893   */\n      0x1f\n        /* \"#utility.yul\":1884:1889   */\n      dup4\n        /* \"#utility.yul\":1880:1894   */\n      add\n        /* \"#utility.yul\":1876:1904   */\n      and\n        /* \"#utility.yul\":1866:1904   */\n      swap1\n      pop\n        /* \"#utility.yul\":1808:1910   */\n      swap2\n      swap1\n      pop\n      jump\t// out\n        /* \"#utility.yul\":1916:2293   */\n    tag_123:\n        /* \"#utility.yul\":2004:2007   */\n      0x00\n        /* \"#utility.yul\":2032:2071   */\n      tag_184\n        /* \"#utility.yul\":2065:2070   */\n      dup3\n        /* \"#utility.yul\":2032:2071   */\n      tag_119\n      jump\t// in\n    tag_184:\n        /* \"#utility.yul\":2087:2158   */\n      tag_185\n        /* \"#utility.yul\":2151:2157   */\n      dup2\n        /* \"#utility.yul\":2146:2149   */\n      dup6\n        /* \"#utility.yul\":2087:2158   */\n      tag_120\n      jump\t// in\n    tag_185:\n        /* \"#utility.yul\":2080:2158   */\n      swap4\n      pop\n        /* \"#utility.yul\":2167:2232   */\n      tag_186\n        /* \"#utility.yul\":2225:2231   */\n      dup2\n        /* \"#utility.yul\":2220:2223   */\n      dup6\n        /* \"#utility.yul\":2213:2217   */\n      0x20\n        /* \"#utility.yul\":2206:2211   */\n      dup7\n        /* \"#utility.yul\":2202:2218   */\n      add\n        /* \"#utility.yul\":2167:2232   */\n      tag_121\n      jump\t// in\n    tag_186:\n        /* \"#utility.yul\":2257:2286   */\n      tag_187\n        /* \"#utility.yul\":2279:2285   */\n      dup2\n        /* \"#utility.yul\":2257:2286   */\n      tag_122\n      jump\t// in\n    tag_187:\n        /* \"#utility.yul\":2252:2255   */\n      dup5\n        /* \"#utility.yul\":2248:2287   */\n      add\n        /* \"#utility.yul\":2241:2287   */\n      swap2\n      pop\n        /* \"#utility.yul\":2008:2293   */\n      pop\n        /* \"#utility.yul\":1916:2293   */\n      swap3\n      swap2\n      pop\n      pop\n      jump\t// out\n        /* \"#utility.yul\":2299:2417   */\n    tag_124:\n        /* \"#utility.yul\":2386:2410   */\n      tag_189\n        /* \"#utility.yul\":2404:2409   */\n      dup2\n        /* \"#utility.yul\":2386:2410   */\n      tag_113\n      jump\t// in\n    tag_189:\n        /* \"#utility.yul\":2381:2384   */\n      dup3\n        /* \"#utility.yul\":2374:2411   */\n      mstore\n        /* \"#utility.yul\":2299:2417   */\n      pop\n      pop\n      jump\t// out\n        /* \"#utility.yul\":2423:2513   */\n    tag_125:\n        /* \"#utility.yul\":2457:2464   */\n      0x00\n        /* \"#utility.yul\":2500:2505   */\n      dup2\n        /* \"#utility.yul\":2493:2506   */\n      iszero\n        /* \"#utility.yul\":2486:2507   */\n      iszero\n        /* \"#utility.yul\":2475:2507   */\n      swap1\n      pop\n        /* \"#utility.yul\":2423:2513   */\n      swap2\n      swap1\n      pop\n      jump\t// out\n        /* \"#utility.yul\":2519:2628   */\n    tag_126:\n        /* \"#utility.yul\":2600:2621   */\n      tag_192\n        /* \"#utility.yul\":2615:2620   */\n      dup2\n        /* \"#utility.yul\":2600:2621   */\n      tag_125\n      jump\t// in\n    tag_192:\n        /* \"#utility.yul\":2595:2598   */\n      dup3\n        /* \"#utility.yul\":2588:2622   */\n      mstore\n        /* \"#utility.yul\":2519:2628   */\n      pop\n      pop\n      jump\t// out\n        /* \"#utility.yul\":2634:3872   */\n    tag_14:\n        /* \"#utility.yul\":2969:2973   */\n      0x00\n        /* \"#utility.yul\":3007:3010   */\n      0xe0\n        /* \"#utility.yul\":2996:3005   */\n      dup3\n        /* \"#utility.yul\":2992:3011   */\n      add\n        /* \"#utility.yul\":2984:3011   */\n      swap1\n      pop\n        /* \"#utility.yul\":3021:3092   */\n      tag_194\n        /* \"#utility.yul\":3089:3090   */\n      0x00\n        /* \"#utility.yul\":3078:3087   */\n      dup4\n        /* \"#utility.yul\":3074:3091   */\n      add\n        /* \"#utility.yul\":3065:3071   */\n      dup11\n        /* \"#utility.yul\":3021:3092   */\n      tag_118\n      jump\t// in\n    tag_194:\n        /* \"#utility.yul\":3139:3148   */\n      dup2\n        /* \"#utility.yul\":3133:3137   */\n      dup2\n        /* \"#utility.yul\":3129:3149   */\n      sub\n        /* \"#utility.yul\":3124:3126   */\n      0x20\n        /* \"#utility.yul\":3113:3122   */\n      dup4\n        /* \"#utility.yul\":3109:3127   */\n      add\n        /* \"#utility.yul\":3102:3150   */\n      mstore\n        /* \"#utility.yul\":3167:3245   */\n      tag_195\n        /* \"#utility.yul\":3240:3244   */\n      dup2\n        /* \"#utility.yul\":3231:3237   */\n      dup10\n        /* \"#utility.yul\":3167:3245   */\n      tag_123\n      jump\t// in\n    tag_195:\n        /* \"#utility.yul\":3159:3245   */\n      swap1\n      pop\n        /* \"#utility.yul\":3292:3301   */\n      dup2\n        /* \"#utility.yul\":3286:3290   */\n      dup2\n        /* \"#utility.yul\":3282:3302   */\n      sub\n        /* \"#utility.yul\":3277:3279   */\n      0x40\n        /* \"#utility.yul\":3266:3275   */\n      dup4\n        /* \"#utility.yul\":3262:3280   */\n      add\n        /* \"#utility.yul\":3255:3303   */\n      mstore\n        /* \"#utility.yul\":3320:3398   */\n      tag_196\n        /* \"#utility.yul\":3393:3397   */\n      dup2\n        /* \"#utility.yul\":3384:3390   */\n      dup9\n        /* \"#utility.yul\":3320:3398   */\n      tag_123\n      jump\t// in\n    tag_196:\n        /* \"#utility.yul\":3312:3398   */\n      swap1\n      pop\n        /* \"#utility.yul\":3445:3454   */\n      dup2\n        /* \"#utility.yul\":3439:3443   */\n      dup2\n        /* \"#utility.yul\":3435:3455   */\n      sub\n        /* \"#utility.yul\":3430:3432   */\n      0x60\n        /* \"#utility.yul\":3419:3428   */\n      dup4\n        /* \"#utility.yul\":3415:3433   */\n      add\n        /* \"#utility.yul\":3408:3456   */\n      mstore\n        /* \"#utility.yul\":3473:3551   */\n      tag_197\n        /* \"#utility.yul\":3546:3550   */\n      dup2\n        /* \"#utility.yul\":3537:3543   */\n      dup8\n        /* \"#utility.yul\":3473:3551   */\n      tag_123\n      jump\t// in\n    tag_197:\n        /* \"#utility.yul\":3465:3551   */\n      swap1\n      pop\n        /* \"#utility.yul\":3599:3608   */\n      dup2\n        /* \"#utility.yul\":3593:3597   */\n      dup2\n        /* \"#utility.yul\":3589:3609   */\n      sub\n        /* \"#utility.yul\":3583:3586   */\n      0x80\n        /* \"#utility.yul\":3572:3581   */\n      dup4\n        /* \"#utility.yul\":3568:3587   */\n      add\n        /* \"#utility.yul\":3561:3610   */\n      mstore\n        /* \"#utility.yul\":3627:3705   */\n      tag_198\n        /* \"#utility.yul\":3700:3704   */\n      dup2\n        /* \"#utility.yul\":3691:3697   */\n      dup7\n        /* \"#utility.yul\":3627:3705   */\n      tag_123\n      jump\t// in\n    tag_198:\n        /* \"#utility.yul\":3619:3705   */\n      swap1\n      pop\n        /* \"#utility.yul\":3715:3788   */\n      tag_199\n        /* \"#utility.yul\":3783:3786   */\n      0xa0\n        /* \"#utility.yul\":3772:3781   */\n      dup4\n        /* \"#utility.yul\":3768:3787   */\n      add\n        /* \"#utility.yul\":3759:3765   */\n      dup6\n        /* \"#utility.yul\":3715:3788   */\n      tag_124\n      jump\t// in\n    tag_199:\n        /* \"#utility.yul\":3798:3865   */\n      tag_200\n        /* \"#utility.yul\":3860:3863   */\n      0xc0\n        /* \"#utility.yul\":3849:3858   */\n      dup4\n        /* \"#utility.yul\":3845:3864   */\n      add\n        /* \"#utility.yul\":3836:3842   */\n      dup5\n        /* \"#utility.yul\":3798:3865   */\n      tag_126\n      jump\t// in\n    tag_200:\n        /* \"#utility.yul\":2634:3872   */\n      swap9\n      swap8\n      pop\n      pop\n      pop\n      pop\n      pop\n      pop\n      pop\n      pop\n      jump\t// out\n        /* \"#utility.yul\":3878:4100   */\n    tag_23:\n        /* \"#utility.yul\":3971:3975   */\n      0x00\n        /* \"#utility.yul\":4009:4011   */\n      0x20\n        /* \"#utility.yul\":3998:4007   */\n      dup3\n        /* \"#utility.yul\":3994:4012   */\n      add\n        /* \"#utility.yul\":3986:4012   */\n      swap1\n      pop\n        /* \"#utility.yul\":4022:4093   */\n      tag_202\n        /* \"#utility.yul\":4090:4091   */\n      0x00\n        /* \"#utility.yul\":4079:4088   */\n      dup4\n        /* \"#utility.yul\":4075:4092   */\n      add\n        /* \"#utility.yul\":4066:4072   */\n      dup5\n        /* \"#utility.yul\":4022:4093   */\n      tag_124\n      jump\t// in\n    tag_202:\n        /* \"#utility.yul\":3878:4100   */\n      swap3\n      swap2\n      pop\n      pop\n      jump\t// out\n        /* \"#utility.yul\":4106:4223   */\n    tag_127:\n        /* \"#utility.yul\":4215:4216   */\n      0x00\n        /* \"#utility.yul\":4212:4213   */\n      dup1\n        /* \"#utility.yul\":4205:4217   */\n      revert\n        /* \"#utility.yul\":4229:4346   */\n    tag_128:\n        /* \"#utility.yul\":4338:4339   */\n      0x00\n        /* \"#utility.yul\":4335:4336   */\n      dup1\n        /* \"#utility.yul\":4328:4340   */\n      revert\n        /* \"#utility.yul\":4352:4469   */\n    tag_129:\n        /* \"#utility.yul\":4461:4462   */\n      0x00\n        /* \"#utility.yul\":4458:4459   */\n      dup1\n        /* \"#utility.yul\":4451:4463   */\n      revert\n        /* \"#utility.yul\":4489:5042   */\n    tag_130:\n        /* \"#utility.yul\":4547:4555   */\n      0x00\n        /* \"#utility.yul\":4557:4563   */\n      dup1\n        /* \"#utility.yul\":4607:4610   */\n      dup4\n        /* \"#utility.yul\":4600:4604   */\n      0x1f\n        /* \"#utility.yul\":4592:4598   */\n      dup5\n        /* \"#utility.yul\":4588:4605   */\n      add\n        /* \"#utility.yul\":4584:4611   */\n      slt\n        /* \"#utility.yul\":4574:4696   */\n      tag_207\n      jumpi\n        /* \"#utility.yul\":4615:4694   */\n      tag_208\n      tag_127\n      jump\t// in\n    tag_208:\n        /* \"#utility.yul\":4574:4696   */\n    tag_207:\n        /* \"#utility.yul\":4728:4734   */\n      dup3\n        /* \"#utility.yul\":4715:4735   */\n      calldataload\n        /* \"#utility.yul\":4705:4735   */\n      swap1\n      pop\n        /* \"#utility.yul\":4758:4776   */\n      0xffffffffffffffff\n        /* \"#utility.yul\":4750:4756   */\n      dup2\n        /* \"#utility.yul\":4747:4777   */\n      gt\n        /* \"#utility.yul\":4744:4861   */\n      iszero\n      tag_209\n      jumpi\n        /* \"#utility.yul\":4780:4859   */\n      tag_210\n      tag_128\n      jump\t// in\n    tag_210:\n        /* \"#utility.yul\":4744:4861   */\n    tag_209:\n        /* \"#utility.yul\":4894:4898   */\n      0x20\n        /* \"#utility.yul\":4886:4892   */\n      dup4\n        /* \"#utility.yul\":4882:4899   */\n      add\n        /* \"#utility.yul\":4870:4899   */\n      swap2\n      pop\n        /* \"#utility.yul\":4948:4951   */\n      dup4\n        /* \"#utility.yul\":4940:4944   */\n      0x01\n        /* \"#utility.yul\":4932:4938   */\n      dup3\n        /* \"#utility.yul\":4928:4945   */\n      mul\n        /* \"#utility.yul\":4918:4926   */\n      dup4\n        /* \"#utility.yul\":4914:4946   */\n      add\n        /* \"#utility.yul\":4911:4952   */\n      gt\n        /* \"#utility.yul\":4908:5036   */\n      iszero\n      tag_211\n      jumpi\n        /* \"#utility.yul\":4955:5034   */\n      tag_212\n      tag_129\n      jump\t// in\n    tag_212:\n        /* \"#utility.yul\":4908:5036   */\n    tag_211:\n        /* \"#utility.yul\":4489:5042   */\n      swap3\n      pop\n      swap3\n      swap1\n      pop\n      jump\t// out\n        /* \"#utility.yul\":5048:6613   */\n    tag_31:\n        /* \"#utility.yul\":5182:5188   */\n      0x00\n        /* \"#utility.yul\":5190:5196   */\n      dup1\n        /* \"#utility.yul\":5198:5204   */\n      0x00\n        /* \"#utility.yul\":5206:5212   */\n      dup1\n        /* \"#utility.yul\":5214:5220   */\n      0x00\n        /* \"#utility.yul\":5222:5228   */\n      dup1\n        /* \"#utility.yul\":5230:5236   */\n      0x00\n        /* \"#utility.yul\":5238:5244   */\n      dup1\n        /* \"#utility.yul\":5287:5290   */\n      0x80\n        /* \"#utility.yul\":5275:5284   */\n      dup10\n        /* \"#utility.yul\":5266:5273   */\n      dup12\n        /* \"#utility.yul\":5262:5285   */\n      sub\n        /* \"#utility.yul\":5258:5291   */\n      slt\n        /* \"#utility.yul\":5255:5375   */\n      iszero\n      tag_214\n      jumpi\n        /* \"#utility.yul\":5294:5373   */\n      tag_215\n      tag_111\n      jump\t// in\n    tag_215:\n        /* \"#utility.yul\":5255:5375   */\n    tag_214:\n        /* \"#utility.yul\":5442:5443   */\n      0x00\n        /* \"#utility.yul\":5431:5440   */\n      dup10\n        /* \"#utility.yul\":5427:5444   */\n      add\n        /* \"#utility.yul\":5414:5445   */\n      calldataload\n        /* \"#utility.yul\":5472:5490   */\n      0xffffffffffffffff\n        /* \"#utility.yul\":5464:5470   */\n      dup2\n        /* \"#utility.yul\":5461:5491   */\n      gt\n        /* \"#utility.yul\":5458:5575   */\n      iszero\n      tag_216\n      jumpi\n        /* \"#utility.yul\":5494:5573   */\n      tag_217\n      tag_112\n      jump\t// in\n    tag_217:\n        /* \"#utility.yul\":5458:5575   */\n    tag_216:\n        /* \"#utility.yul\":5607:5672   */\n      tag_218\n        /* \"#utility.yul\":5664:5671   */\n      dup12\n        /* \"#utility.yul\":5655:5661   */\n      dup3\n        /* \"#utility.yul\":5644:5653   */\n      dup13\n        /* \"#utility.yul\":5640:5662   */\n      add\n        /* \"#utility.yul\":5607:5672   */\n      tag_130\n      jump\t// in\n    tag_218:\n        /* \"#utility.yul\":5589:5672   */\n      swap9\n      pop\n      swap9\n      pop\n        /* \"#utility.yul\":5385:5682   */\n      pop\n        /* \"#utility.yul\":5749:5751   */\n      0x20\n        /* \"#utility.yul\":5738:5747   */\n      dup10\n        /* \"#utility.yul\":5734:5752   */\n      add\n        /* \"#utility.yul\":5721:5753   */\n      calldataload\n        /* \"#utility.yul\":5780:5798   */\n      0xffffffffffffffff\n        /* \"#utility.yul\":5772:5778   */\n      dup2\n        /* \"#utility.yul\":5769:5799   */\n      gt\n        /* \"#utility.yul\":5766:5883   */\n      iszero\n      tag_219\n      jumpi\n        /* \"#utility.yul\":5802:5881   */\n      tag_220\n      tag_112\n      jump\t// in\n    tag_220:\n        /* \"#utility.yul\":5766:5883   */\n    tag_219:\n        /* \"#utility.yul\":5915:5980   */\n      tag_221\n        /* \"#utility.yul\":5972:5979   */\n      dup12\n        /* \"#utility.yul\":5963:5969   */\n      dup3\n        /* \"#utility.yul\":5952:5961   */\n      dup13\n        /* \"#utility.yul\":5948:5970   */\n      add\n        /* \"#utility.yul\":5915:5980   */\n      tag_130\n      jump\t// in\n    tag_221:\n        /* \"#utility.yul\":5897:5980   */\n      swap7\n      pop\n      swap7\n      pop\n        /* \"#utility.yul\":5692:5990   */\n      pop\n        /* \"#utility.yul\":6057:6059   */\n      0x40\n        /* \"#utility.yul\":6046:6055   */\n      dup10\n        /* \"#utility.yul\":6042:6060   */\n      add\n        /* \"#utility.yul\":6029:6061   */\n      calldataload\n        /* \"#utility.yul\":6088:6106   */\n      0xffffffffffffffff\n        /* \"#utility.yul\":6080:6086   */\n      dup2\n        /* \"#utility.yul\":6077:6107   */\n      gt\n        /* \"#utility.yul\":6074:6191   */\n      iszero\n      tag_222\n      jumpi\n        /* \"#utility.yul\":6110:6189   */\n      tag_223\n      tag_112\n      jump\t// in\n    tag_223:\n        /* \"#utility.yul\":6074:6191   */\n    tag_222:\n        /* \"#utility.yul\":6223:6288   */\n      tag_224\n        /* \"#utility.yul\":6280:6287   */\n      dup12\n        /* \"#utility.yul\":6271:6277   */\n      dup3\n        /* \"#utility.yul\":6260:6269   */\n      dup13\n        /* \"#utility.yul\":6256:6278   */\n      add\n        /* \"#utility.yul\":6223:6288   */\n      tag_130\n      jump\t// in\n    tag_224:\n        /* \"#utility.yul\":6205:6288   */\n      swap5\n      pop\n      swap5\n      pop\n        /* \"#utility.yul\":6000:6298   */\n      pop\n        /* \"#utility.yul\":6365:6367   */\n      0x60\n        /* \"#utility.yul\":6354:6363   */\n      dup10\n        /* \"#utility.yul\":6350:6368   */\n      add\n        /* \"#utility.yul\":6337:6369   */\n      calldataload\n        /* \"#utility.yul\":6396:6414   */\n      0xffffffffffffffff\n        /* \"#utility.yul\":6388:6394   */\n      dup2\n        /* \"#utility.yul\":6385:6415   */\n      gt\n        /* \"#utility.yul\":6382:6499   */\n      iszero\n      tag_225\n      jumpi\n        /* \"#utility.yul\":6418:6497   */\n      tag_226\n      tag_112\n      jump\t// in\n    tag_226:\n        /* \"#utility.yul\":6382:6499   */\n    tag_225:\n        /* \"#utility.yul\":6531:6596   */\n      tag_227\n        /* \"#utility.yul\":6588:6595   */\n      dup12\n        /* \"#utility.yul\":6579:6585   */\n      dup3\n        /* \"#utility.yul\":6568:6577   */\n      dup13\n        /* \"#utility.yul\":6564:6586   */\n      add\n        /* \"#utility.yul\":6531:6596   */\n      tag_130\n      jump\t// in\n    tag_227:\n        /* \"#utility.yul\":6513:6596   */\n      swap3\n      pop\n      swap3\n      pop\n        /* \"#utility.yul\":6308:6606   */\n      pop\n        /* \"#utility.yul\":5048:6613   */\n      swap3\n      swap6\n      swap9\n      pop\n      swap3\n      swap6\n      swap9\n      swap1\n      swap4\n      swap7\n      pop\n      jump\t// out\n        /* \"#utility.yul\":6619:6799   */\n    tag_131:\n        /* \"#utility.yul\":6667:6744   */\n      0x4e487b7100000000000000000000000000000000000000000000000000000000\n        /* \"#utility.yul\":6664:6665   */\n      0x00\n        /* \"#utility.yul\":6657:6745   */\n      mstore\n        /* \"#utility.yul\":6764:6768   */\n      0x22\n        /* \"#utility.yul\":6761:6762   */\n      0x04\n        /* \"#utility.yul\":6754:6769   */\n      mstore\n        /* \"#utility.yul\":6788:6792   */\n      0x24\n        /* \"#utility.yul\":6785:6786   */\n      0x00\n        /* \"#utility.yul\":6778:6793   */\n      revert\n        /* \"#utility.yul\":6805:7125   */\n    tag_37:\n        /* \"#utility.yul\":6849:6855   */\n      0x00\n        /* \"#utility.yul\":6886:6887   */\n      0x02\n        /* \"#utility.yul\":6880:6884   */\n      dup3\n        /* \"#utility.yul\":6876:6888   */\n      div\n        /* \"#utility.yul\":6866:6888   */\n      swap1\n      pop\n        /* \"#utility.yul\":6933:6934   */\n      0x01\n        /* \"#utility.yul\":6927:6931   */\n      dup3\n        /* \"#utility.yul\":6923:6935   */\n      and\n        /* \"#utility.yul\":6954:6972   */\n      dup1\n        /* \"#utility.yul\":6944:7025   */\n      tag_230\n      jumpi\n        /* \"#utility.yul\":7010:7014   */\n      0x7f\n        /* \"#utility.yul\":7002:7008   */\n      dup3\n        /* \"#utility.yul\":6998:7015   */\n      and\n        /* \"#utility.yul\":6988:7015   */\n      swap2\n      pop\n        /* \"#utility.yul\":6944:7025   */\n    tag_230:\n        /* \"#utility.yul\":7072:7074   */\n      0x20\n        /* \"#utility.yul\":7064:7070   */\n      dup3\n        /* \"#utility.yul\":7061:7075   */\n      lt\n        /* \"#utility.yul\":7041:7059   */\n      dup2\n        /* \"#utility.yul\":7038:7076   */\n      sub\n        /* \"#utility.yul\":7035:7119   */\n      tag_231\n      jumpi\n        /* \"#utility.yul\":7091:7109   */\n      tag_232\n      tag_131\n      jump\t// in\n    tag_232:\n        /* \"#utility.yul\":7035:7119   */\n    tag_231:\n        /* \"#utility.yul\":6856:7125   */\n      pop\n        /* \"#utility.yul\":6805:7125   */\n      swap2\n      swap1\n      pop\n      jump\t// out\n        /* \"#utility.yul\":7131:7307   */\n    tag_132:\n        /* \"#utility.yul\":7271:7299   */\n      0x596f7520666f206e6f742068617665207065726d697373696f6e000000000000\n        /* \"#utility.yul\":7267:7268   */\n      0x00\n        /* \"#utility.yul\":7259:7265   */\n      dup3\n        /* \"#utility.yul\":7255:7269   */\n      add\n        /* \"#utility.yul\":7248:7300   */\n      mstore\n        /* \"#utility.yul\":7131:7307   */\n      pop\n      jump\t// out\n        /* \"#utility.yul\":7313:7679   */\n    tag_133:\n        /* \"#utility.yul\":7455:7458   */\n      0x00\n        /* \"#utility.yul\":7476:7543   */\n      tag_235\n        /* \"#utility.yul\":7540:7542   */\n      0x1a\n        /* \"#utility.yul\":7535:7538   */\n      dup4\n        /* \"#utility.yul\":7476:7543   */\n      tag_120\n      jump\t// in\n    tag_235:\n        /* \"#utility.yul\":7469:7543   */\n      swap2\n      pop\n        /* \"#utility.yul\":7552:7645   */\n      tag_236\n        /* \"#utility.yul\":7641:7644   */\n      dup3\n        /* \"#utility.yul\":7552:7645   */\n      tag_132\n      jump\t// in\n    tag_236:\n        /* \"#utility.yul\":7670:7672   */\n      0x20\n        /* \"#utility.yul\":7665:7668   */\n      dup3\n        /* \"#utility.yul\":7661:7673   */\n      add\n        /* \"#utility.yul\":7654:7673   */\n      swap1\n      pop\n        /* \"#utility.yul\":7313:7679   */\n      swap2\n      swap1\n      pop\n      jump\t// out\n        /* \"#utility.yul\":7685:8104   */\n    tag_80:\n        /* \"#utility.yul\":7851:7855   */\n      0x00\n        /* \"#utility.yul\":7889:7891   */\n      0x20\n        /* \"#utility.yul\":7878:7887   */\n      dup3\n        /* \"#utility.yul\":7874:7892   */\n      add\n        /* \"#utility.yul\":7866:7892   */\n      swap1\n      pop\n        /* \"#utility.yul\":7938:7947   */\n      dup2\n        /* \"#utility.yul\":7932:7936   */\n      dup2\n        /* \"#utility.yul\":7928:7948   */\n      sub\n        /* \"#utility.yul\":7924:7925   */\n      0x00\n        /* \"#utility.yul\":7913:7922   */\n      dup4\n        /* \"#utility.yul\":7909:7926   */\n      add\n        /* \"#utility.yul\":7902:7949   */\n      mstore\n        /* \"#utility.yul\":7966:8097   */\n      tag_238\n        /* \"#utility.yul\":8092:8096   */\n      dup2\n        /* \"#utility.yul\":7966:8097   */\n      tag_133\n      jump\t// in\n    tag_238:\n        /* \"#utility.yul\":7958:8097   */\n      swap1\n      pop\n        /* \"#utility.yul\":7685:8104   */\n      swap2\n      swap1\n      pop\n      jump\t// out\n        /* \"#utility.yul\":8110:8284   */\n    tag_134:\n        /* \"#utility.yul\":8250:8276   */\n      0x20546869732063616d706169676e20697320636c6f7365640000000000000000\n        /* \"#utility.yul\":8246:8247   */\n      0x00\n        /* \"#utility.yul\":8238:8244   */\n      dup3\n        /* \"#utility.yul\":8234:8248   */\n      add\n        /* \"#utility.yul\":8227:8277   */\n      mstore\n        /* \"#utility.yul\":8110:8284   */\n      pop\n      jump\t// out\n        /* \"#utility.yul\":8290:8656   */\n    tag_135:\n        /* \"#utility.yul\":8432:8435   */\n      0x00\n        /* \"#utility.yul\":8453:8520   */\n      tag_241\n        /* \"#utility.yul\":8517:8519   */\n      0x18\n        /* \"#utility.yul\":8512:8515   */\n      dup4\n        /* \"#utility.yul\":8453:8520   */\n      tag_120\n      jump\t// in\n    tag_241:\n        /* \"#utility.yul\":8446:8520   */\n      swap2\n      pop\n        /* \"#utility.yul\":8529:8622   */\n      tag_242\n        /* \"#utility.yul\":8618:8621   */\n      dup3\n        /* \"#utility.yul\":8529:8622   */\n      tag_134\n      jump\t// in\n    tag_242:\n        /* \"#utility.yul\":8647:8649   */\n      0x20\n        /* \"#utility.yul\":8642:8645   */\n      dup3\n        /* \"#utility.yul\":8638:8650   */\n      add\n        /* \"#utility.yul\":8631:8650   */\n      swap1\n      pop\n        /* \"#utility.yul\":8290:8656   */\n      swap2\n      swap1\n      pop\n      jump\t// out\n        /* \"#utility.yul\":8662:9081   */\n    tag_83:\n        /* \"#utility.yul\":8828:8832   */\n      0x00\n        /* \"#utility.yul\":8866:8868   */\n      0x20\n        /* \"#utility.yul\":8855:8864   */\n      dup3\n        /* \"#utility.yul\":8851:8869   */\n      add\n        /* \"#utility.yul\":8843:8869   */\n      swap1\n      pop\n        /* \"#utility.yul\":8915:8924   */\n      dup2\n        /* \"#utility.yul\":8909:8913   */\n      dup2\n        /* \"#utility.yul\":8905:8925   */\n      sub\n        /* \"#utility.yul\":8901:8902   */\n      0x00\n        /* \"#utility.yul\":8890:8899   */\n      dup4\n        /* \"#utility.yul\":8886:8903   */\n      add\n        /* \"#utility.yul\":8879:8926   */\n      mstore\n        /* \"#utility.yul\":8943:9074   */\n      tag_244\n        /* \"#utility.yul\":9069:9073   */\n      dup2\n        /* \"#utility.yul\":8943:9074   */\n      tag_135\n      jump\t// in\n    tag_244:\n        /* \"#utility.yul\":8935:9074   */\n      swap1\n      pop\n        /* \"#utility.yul\":8662:9081   */\n      swap2\n      swap1\n      pop\n      jump\t// out\n        /* \"#utility.yul\":9087:9267   */\n    tag_136:\n        /* \"#utility.yul\":9135:9212   */\n      0x4e487b7100000000000000000000000000000000000000000000000000000000\n        /* \"#utility.yul\":9132:9133   */\n      0x00\n        /* \"#utility.yul\":9125:9213   */\n      mstore\n        /* \"#utility.yul\":9232:9236   */\n      0x11\n        /* \"#utility.yul\":9229:9230   */\n      0x04\n        /* \"#utility.yul\":9222:9237   */\n      mstore\n        /* \"#utility.yul\":9256:9260   */\n      0x24\n        /* \"#utility.yul\":9253:9254   */\n      0x00\n        /* \"#utility.yul\":9246:9261   */\n      revert\n        /* \"#utility.yul\":9273:9467   */\n    tag_85:\n        /* \"#utility.yul\":9313:9317   */\n      0x00\n        /* \"#utility.yul\":9333:9353   */\n      tag_247\n        /* \"#utility.yul\":9351:9352   */\n      dup3\n        /* \"#utility.yul\":9333:9353   */\n      tag_113\n      jump\t// in\n    tag_247:\n        /* \"#utility.yul\":9328:9353   */\n      swap2\n      pop\n        /* \"#utility.yul\":9367:9387   */\n      tag_248\n        /* \"#utility.yul\":9385:9386   */\n      dup4\n        /* \"#utility.yul\":9367:9387   */\n      tag_113\n      jump\t// in\n    tag_248:\n        /* \"#utility.yul\":9362:9387   */\n      swap3\n      pop\n        /* \"#utility.yul\":9411:9412   */\n      dup3\n        /* \"#utility.yul\":9408:9409   */\n      dup3\n        /* \"#utility.yul\":9404:9413   */\n      sub\n        /* \"#utility.yul\":9396:9413   */\n      swap1\n      pop\n        /* \"#utility.yul\":9435:9436   */\n      dup2\n        /* \"#utility.yul\":9429:9433   */\n      dup2\n        /* \"#utility.yul\":9426:9437   */\n      gt\n        /* \"#utility.yul\":9423:9460   */\n      iszero\n      tag_249\n      jumpi\n        /* \"#utility.yul\":9440:9458   */\n      tag_250\n      tag_136\n      jump\t// in\n    tag_250:\n        /* \"#utility.yul\":9423:9460   */\n    tag_249:\n        /* \"#utility.yul\":9273:9467   */\n      swap3\n      swap2\n      pop\n      pop\n      jump\t// out\n        /* \"#utility.yul\":9473:9620   */\n    tag_137:\n        /* \"#utility.yul\":9574:9585   */\n      0x00\n        /* \"#utility.yul\":9611:9614   */\n      dup2\n        /* \"#utility.yul\":9596:9614   */\n      swap1\n      pop\n        /* \"#utility.yul\":9473:9620   */\n      swap3\n      swap2\n      pop\n      pop\n      jump\t// out\n        /* \"#utility.yul\":9626:9740   */\n    tag_138:\n      pop\n      jump\t// out\n        /* \"#utility.yul\":9746:10144   */\n    tag_139:\n        /* \"#utility.yul\":9905:9908   */\n      0x00\n        /* \"#utility.yul\":9926:10009   */\n      tag_254\n        /* \"#utility.yul\":10007:10008   */\n      0x00\n        /* \"#utility.yul\":10002:10005   */\n      dup4\n        /* \"#utility.yul\":9926:10009   */\n      tag_137\n      jump\t// in\n    tag_254:\n        /* \"#utility.yul\":9919:10009   */\n      swap2\n      pop\n        /* \"#utility.yul\":10018:10111   */\n      tag_255\n        /* \"#utility.yul\":10107:10110   */\n      dup3\n        /* \"#utility.yul\":10018:10111   */\n      tag_138\n      jump\t// in\n    tag_255:\n        /* \"#utility.yul\":10136:10137   */\n      0x00\n        /* \"#utility.yul\":10131:10134   */\n      dup3\n        /* \"#utility.yul\":10127:10138   */\n      add\n        /* \"#utility.yul\":10120:10138   */\n      swap1\n      pop\n        /* \"#utility.yul\":9746:10144   */\n      swap2\n      swap1\n      pop\n      jump\t// out\n        /* \"#utility.yul\":10150:10529   */\n    tag_87:\n        /* \"#utility.yul\":10334:10337   */\n      0x00\n        /* \"#utility.yul\":10356:10503   */\n      tag_257\n        /* \"#utility.yul\":10499:10502   */\n      dup3\n        /* \"#utility.yul\":10356:10503   */\n      tag_139\n      jump\t// in\n    tag_257:\n        /* \"#utility.yul\":10349:10503   */\n      swap2\n      pop\n        /* \"#utility.yul\":10520:10523   */\n      dup2\n        /* \"#utility.yul\":10513:10523   */\n      swap1\n      pop\n        /* \"#utility.yul\":10150:10529   */\n      swap2\n      swap1\n      pop\n      jump\t// out\n        /* \"#utility.yul\":10535:10768   */\n    tag_95:\n        /* \"#utility.yul\":10574:10577   */\n      0x00\n        /* \"#utility.yul\":10597:10621   */\n      tag_259\n        /* \"#utility.yul\":10615:10620   */\n      dup3\n        /* \"#utility.yul\":10597:10621   */\n      tag_113\n      jump\t// in\n    tag_259:\n        /* \"#utility.yul\":10588:10621   */\n      swap2\n      pop\n        /* \"#utility.yul\":10643:10709   */\n      0xffffffffffffffffffffffffffffffffffffffffffffffffffffffffffffffff\n        /* \"#utility.yul\":10636:10641   */\n      dup3\n        /* \"#utility.yul\":10633:10710   */\n      sub\n        /* \"#utility.yul\":10630:10733   */\n      tag_260\n      jumpi\n        /* \"#utility.yul\":10713:10731   */\n      tag_261\n      tag_136\n      jump\t// in\n    tag_261:\n        /* \"#utility.yul\":10630:10733   */\n    tag_260:\n        /* \"#utility.yul\":10760:10761   */\n      0x01\n        /* \"#utility.yul\":10753:10758   */\n      dup3\n        /* \"#utility.yul\":10749:10762   */\n      add\n        /* \"#utility.yul\":10742:10762   */\n      swap1\n      pop\n        /* \"#utility.yul\":10535:10768   */\n      swap2\n      swap1\n      pop\n      jump\t// out\n        /* \"#utility.yul\":10774:10954   */\n    tag_140:\n        /* \"#utility.yul\":10822:10899   */\n      0x4e487b7100000000000000000000000000000000000000000000000000000000\n        /* \"#utility.yul\":10819:10820   */\n      0x00\n        /* \"#utility.yul\":10812:10900   */\n      mstore\n        /* \"#utility.yul\":10919:10923   */\n      0x41\n        /* \"#utility.yul\":10916:10917   */\n      0x04\n        /* \"#utility.yul\":10909:10924   */\n      mstore\n        /* \"#utility.yul\":10943:10947   */\n      0x24\n        /* \"#utility.yul\":10940:10941   */\n      0x00\n        /* \"#utility.yul\":10933:10948   */\n      revert\n        /* \"#utility.yul\":10960:11101   */\n    tag_141:\n        /* \"#utility.yul\":11009:11013   */\n      0x00\n        /* \"#utility.yul\":11032:11035   */\n      dup2\n        /* \"#utility.yul\":11024:11035   */\n      swap1\n      pop\n        /* \"#utility.yul\":11055:11058   */\n      dup2\n        /* \"#utility.yul\":11052:11053   */\n      0x00\n        /* \"#utility.yul\":11045:11059   */\n      mstore\n        /* \"#utility.yul\":11089:11093   */\n      0x20\n        /* \"#utility.yul\":11086:11087   */\n      0x00\n        /* \"#utility.yul\":11076:11094   */\n      keccak256\n        /* \"#utility.yul\":11068:11094   */\n      swap1\n      pop\n        /* \"#utility.yul\":10960:11101   */\n      swap2\n      swap1\n      pop\n      jump\t// out\n        /* \"#utility.yul\":11107:11200   */\n    tag_142:\n        /* \"#utility.yul\":11144:11150   */\n      0x00\n        /* \"#utility.yul\":11191:11193   */\n      0x20\n        /* \"#utility.yul\":11186:11188   */\n      0x1f\n        /* \"#utility.yul\":11179:11184   */\n      dup4\n        /* \"#utility.yul\":11175:11189   */\n      add\n        /* \"#utility.yul\":11171:11194   */\n      div\n        /* \"#utility.yul\":11161:11194   */\n      swap1\n      pop\n        /* \"#utility.yul\":11107:11200   */\n      swap2\n      swap1\n      pop\n      jump\t// out\n        /* \"#utility.yul\":11206:11313   */\n    tag_143:\n        /* \"#utility.yul\":11250:11258   */\n      0x00\n        /* \"#utility.yul\":11300:11305   */\n      dup3\n        /* \"#utility.yul\":11294:11298   */\n      dup3\n        /* \"#utility.yul\":11290:11306   */\n      shl\n        /* \"#utility.yul\":11269:11306   */\n      swap1\n      pop\n        /* \"#utility.yul\":11206:11313   */\n      swap3\n      swap2\n      pop\n      pop\n      jump\t// out\n        /* \"#utility.yul\":11319:11712   */\n    tag_144:\n        /* \"#utility.yul\":11388:11394   */\n      0x00\n        /* \"#utility.yul\":11438:11439   */\n      0x08\n        /* \"#utility.yul\":11426:11436   */\n      dup4\n        /* \"#utility.yul\":11422:11440   */\n      mul\n        /* \"#utility.yul\":11461:11558   */\n      tag_267\n        /* \"#utility.yul\":11491:11557   */\n      0xffffffffffffffffffffffffffffffffffffffffffffffffffffffffffffffff\n        /* \"#utility.yul\":11480:11489   */\n      dup3\n        /* \"#utility.yul\":11461:11558   */\n      tag_143\n      jump\t// in\n    tag_267:\n        /* \"#utility.yul\":11579:11618   */\n      tag_268\n        /* \"#utility.yul\":11609:11617   */\n      dup7\n        /* \"#utility.yul\":11598:11607   */\n      dup4\n        /* \"#utility.yul\":11579:11618   */\n      tag_143\n      jump\t// in\n    tag_268:\n        /* \"#utility.yul\":11567:11618   */\n      swap6\n      pop\n        /* \"#utility.yul\":11651:11655   */\n      dup1\n        /* \"#utility.yul\":11647:11656   */\n      not\n        /* \"#utility.yul\":11640:11645   */\n      dup5\n        /* \"#utility.yul\":11636:11657   */\n      and\n        /* \"#utility.yul\":11627:11657   */\n      swap4\n      pop\n        /* \"#utility.yul\":11700:11704   */\n      dup1\n        /* \"#utility.yul\":11690:11698   */\n      dup7\n        /* \"#utility.yul\":11686:11705   */\n      and\n        /* \"#utility.yul\":11679:11684   */\n      dup5\n        /* \"#utility.yul\":11676:11706   */\n      or\n        /* \"#utility.yul\":11666:11706   */\n      swap3\n      pop\n        /* \"#utility.yul\":11395:11712   */\n      pop\n      pop\n        /* \"#utility.yul\":11319:11712   */\n      swap4\n      swap3\n      pop\n      pop\n      pop\n      jump\t// out\n        /* \"#utility.yul\":11718:11778   */\n    tag_145:\n        /* \"#utility.yul\":11746:11749   */\n      0x00\n        /* \"#utility.yul\":11767:11772   */\n      dup2\n        /* \"#utility.yul\":11760:11772   */\n      swap1\n      pop\n        /* \"#utility.yul\":11718:11778   */\n      swap2\n      swap1\n      pop\n      jump\t// out\n        /* \"#utility.yul\":11784:11926   */\n    tag_146:\n        /* \"#utility.yul\":11834:11843   */\n      0x00\n        /* \"#utility.yul\":11867:11920   */\n      tag_271\n        /* \"#utility.yul\":11885:11919   */\n      tag_272\n        /* \"#utility.yul\":11894:11918   */\n      tag_273\n        /* \"#utility.yul\":11912:11917   */\n      dup5\n        /* \"#utility.yul\":11894:11918   */\n      tag_113\n      jump\t// in\n    tag_273:\n        /* \"#utility.yul\":11885:11919   */\n      tag_145\n      jump\t// in\n    tag_272:\n        /* \"#utility.yul\":11867:11920   */\n      tag_113\n      jump\t// in\n    tag_271:\n        /* \"#utility.yul\":11854:11920   */\n      swap1\n      pop\n        /* \"#utility.yul\":11784:11926   */\n      swap2\n      swap1\n      pop\n      jump\t// out\n        /* \"#utility.yul\":11932:12007   */\n    tag_147:\n        /* \"#utility.yul\":11975:11978   */\n      0x00\n        /* \"#utility.yul\":11996:12001   */\n      dup2\n        /* \"#utility.yul\":11989:12001   */\n      swap1\n      pop\n        /* \"#utility.yul\":11932:12007   */\n      swap2\n      swap1\n      pop\n      jump\t// out\n        /* \"#utility.yul\":12013:12282   */\n    tag_148:\n        /* \"#utility.yul\":12123:12162   */\n      tag_276\n        /* \"#utility.yul\":12154:12161   */\n      dup4\n        /* \"#utility.yul\":12123:12162   */\n      tag_146\n      jump\t// in\n    tag_276:\n        /* \"#utility.yul\":12184:12275   */\n      tag_277\n        /* \"#utility.yul\":12233:12274   */\n      tag_278\n        /* \"#utility.yul\":12257:12273   */\n      dup3\n        /* \"#utility.yul\":12233:12274   */\n      tag_147\n      jump\t// in\n    tag_278:\n        /* \"#utility.yul\":12225:12231   */\n      dup5\n        /* \"#utility.yul\":12218:12222   */\n      dup5\n        /* \"#utility.yul\":12212:12223   */\n      sload\n        /* \"#utility.yul\":12184:12275   */\n      tag_144\n      jump\t// in\n    tag_277:\n        /* \"#utility.yul\":12178:12182   */\n      dup3\n        /* \"#utility.yul\":12171:12276   */\n      sstore\n        /* \"#utility.yul\":12089:12282   */\n      pop\n        /* \"#utility.yul\":12013:12282   */\n      pop\n      pop\n      pop\n      jump\t// out\n        /* \"#utility.yul\":12288:12361   */\n    tag_149:\n        /* \"#utility.yul\":12333:12336   */\n      0x00\n        /* \"#utility.yul\":12288:12361   */\n      swap1\n      jump\t// out\n        /* \"#utility.yul\":12367:12556   */\n    tag_150:\n        /* \"#utility.yul\":12444:12476   */\n      tag_281\n      tag_149\n      jump\t// in\n    tag_281:\n        /* \"#utility.yul\":12485:12550   */\n      tag_282\n        /* \"#utility.yul\":12543:12549   */\n      dup2\n        /* \"#utility.yul\":12535:12541   */\n      dup5\n        /* \"#utility.yul\":12529:12533   */\n      dup5\n        /* \"#utility.yul\":12485:12550   */\n      tag_148\n      jump\t// in\n    tag_282:\n        /* \"#utility.yul\":12420:12556   */\n      pop\n        /* \"#utility.yul\":12367:12556   */\n      pop\n      pop\n      jump\t// out\n        /* \"#utility.yul\":12562:12748   */\n    tag_151:\n        /* \"#utility.yul\":12622:12742   */\n    tag_284:\n        /* \"#utility.yul\":12639:12642   */\n      dup2\n        /* \"#utility.yul\":12632:12637   */\n      dup2\n        /* \"#utility.yul\":12629:12643   */\n      lt\n        /* \"#utility.yul\":12622:12742   */\n      iszero\n      tag_286\n      jumpi\n        /* \"#utility.yul\":12693:12732   */\n      tag_287\n        /* \"#utility.yul\":12730:12731   */\n      0x00\n        /* \"#utility.yul\":12723:12728   */\n      dup3\n        /* \"#utility.yul\":12693:12732   */\n      tag_150\n      jump\t// in\n    tag_287:\n        /* \"#utility.yul\":12666:12667   */\n      0x01\n        /* \"#utility.yul\":12659:12664   */\n      dup2\n        /* \"#utility.yul\":12655:12668   */\n      add\n        /* \"#utility.yul\":12646:12668   */\n      swap1\n      pop\n        /* \"#utility.yul\":12622:12742   */\n      jump(tag_284)\n    tag_286:\n        /* \"#utility.yul\":12562:12748   */\n      pop\n      pop\n      jump\t// out\n        /* \"#utility.yul\":12754:13297   */\n    tag_152:\n        /* \"#utility.yul\":12855:12857   */\n      0x1f\n        /* \"#utility.yul\":12850:12853   */\n      dup3\n        /* \"#utility.yul\":12847:12858   */\n      gt\n        /* \"#utility.yul\":12844:13290   */\n      iszero\n      tag_289\n      jumpi\n        /* \"#utility.yul\":12889:12927   */\n      tag_290\n        /* \"#utility.yul\":12921:12926   */\n      dup2\n        /* \"#utility.yul\":12889:12927   */\n      tag_141\n      jump\t// in\n    tag_290:\n        /* \"#utility.yul\":12973:13002   */\n      tag_291\n        /* \"#utility.yul\":12991:13001   */\n      dup5\n        /* \"#utility.yul\":12973:13002   */\n      tag_142\n      jump\t// in\n    tag_291:\n        /* \"#utility.yul\":12963:12971   */\n      dup2\n        /* \"#utility.yul\":12959:13003   */\n      add\n        /* \"#utility.yul\":13156:13158   */\n      0x20\n        /* \"#utility.yul\":13144:13154   */\n      dup6\n        /* \"#utility.yul\":13141:13159   */\n      lt\n        /* \"#utility.yul\":13138:13187   */\n      iszero\n      tag_292\n      jumpi\n        /* \"#utility.yul\":13177:13185   */\n      dup2\n        /* \"#utility.yul\":13162:13185   */\n      swap1\n      pop\n        /* \"#utility.yul\":13138:13187   */\n    tag_292:\n        /* \"#utility.yul\":13200:13280   */\n      tag_293\n        /* \"#utility.yul\":13256:13278   */\n      tag_294\n        /* \"#utility.yul\":13274:13277   */\n      dup6\n        /* \"#utility.yul\":13256:13278   */\n      tag_142\n      jump\t// in\n    tag_294:\n        /* \"#utility.yul\":13246:13254   */\n      dup4\n        /* \"#utility.yul\":13242:13279   */\n      add\n        /* \"#utility.yul\":13229:13240   */\n      dup3\n        /* \"#utility.yul\":13200:13280   */\n      tag_151\n      jump\t// in\n    tag_293:\n        /* \"#utility.yul\":12859:13290   */\n      pop\n      pop\n        /* \"#utility.yul\":12844:13290   */\n    tag_289:\n        /* \"#utility.yul\":12754:13297   */\n      pop\n      pop\n      pop\n      jump\t// out\n        /* \"#utility.yul\":13303:13420   */\n    tag_153:\n        /* \"#utility.yul\":13357:13365   */\n      0x00\n        /* \"#utility.yul\":13407:13412   */\n      dup3\n        /* \"#utility.yul\":13401:13405   */\n      dup3\n        /* \"#utility.yul\":13397:13413   */\n      shr\n        /* \"#utility.yul\":13376:13413   */\n      swap1\n      pop\n        /* \"#utility.yul\":13303:13420   */\n      swap3\n      swap2\n      pop\n      pop\n      jump\t// out\n        /* \"#utility.yul\":13426:13595   */\n    tag_154:\n        /* \"#utility.yul\":13470:13476   */\n      0x00\n        /* \"#utility.yul\":13503:13554   */\n      tag_297\n        /* \"#utility.yul\":13551:13552   */\n      0x00\n        /* \"#utility.yul\":13547:13553   */\n      not\n        /* \"#utility.yul\":13539:13544   */\n      dup5\n        /* \"#utility.yul\":13536:13537   */\n      0x08\n        /* \"#utility.yul\":13532:13545   */\n      mul\n        /* \"#utility.yul\":13503:13554   */\n      tag_153\n      jump\t// in\n    tag_297:\n        /* \"#utility.yul\":13499:13555   */\n      not\n        /* \"#utility.yul\":13584:13588   */\n      dup1\n        /* \"#utility.yul\":13578:13582   */\n      dup4\n        /* \"#utility.yul\":13574:13589   */\n      and\n        /* \"#utility.yul\":13564:13589   */\n      swap2\n      pop\n        /* \"#utility.yul\":13477:13595   */\n      pop\n        /* \"#utility.yul\":13426:13595   */\n      swap3\n      swap2\n      pop\n      pop\n      jump\t// out\n        /* \"#utility.yul\":13600:13895   */\n    tag_155:\n        /* \"#utility.yul\":13676:13680   */\n      0x00\n        /* \"#utility.yul\":13822:13851   */\n      tag_299\n        /* \"#utility.yul\":13847:13850   */\n      dup4\n        /* \"#utility.yul\":13841:13845   */\n      dup4\n        /* \"#utility.yul\":13822:13851   */\n      tag_154\n      jump\t// in\n    tag_299:\n        /* \"#utility.yul\":13814:13851   */\n      swap2\n      pop\n        /* \"#utility.yul\":13884:13887   */\n      dup3\n        /* \"#utility.yul\":13881:13882   */\n      0x02\n        /* \"#utility.yul\":13877:13888   */\n      mul\n        /* \"#utility.yul\":13871:13875   */\n      dup3\n        /* \"#utility.yul\":13868:13889   */\n      or\n        /* \"#utility.yul\":13860:13889   */\n      swap1\n      pop\n        /* \"#utility.yul\":13600:13895   */\n      swap3\n      swap2\n      pop\n      pop\n      jump\t// out\n        /* \"#utility.yul\":13900:15295   */\n    tag_97:\n        /* \"#utility.yul\":14017:14054   */\n      tag_301\n        /* \"#utility.yul\":14050:14053   */\n      dup3\n        /* \"#utility.yul\":14017:14054   */\n      tag_119\n      jump\t// in\n    tag_301:\n        /* \"#utility.yul\":14119:14137   */\n      0xffffffffffffffff\n        /* \"#utility.yul\":14111:14117   */\n      dup2\n        /* \"#utility.yul\":14108:14138   */\n      gt\n        /* \"#utility.yul\":14105:14161   */\n      iszero\n      tag_302\n      jumpi\n        /* \"#utility.yul\":14141:14159   */\n      tag_303\n      tag_140\n      jump\t// in\n    tag_303:\n        /* \"#utility.yul\":14105:14161   */\n    tag_302:\n        /* \"#utility.yul\":14185:14223   */\n      tag_304\n        /* \"#utility.yul\":14217:14221   */\n      dup3\n        /* \"#utility.yul\":14211:14222   */\n      sload\n        /* \"#utility.yul\":14185:14223   */\n      tag_37\n      jump\t// in\n    tag_304:\n        /* \"#utility.yul\":14270:14337   */\n      tag_305\n        /* \"#utility.yul\":14330:14336   */\n      dup3\n        /* \"#utility.yul\":14322:14328   */\n      dup3\n        /* \"#utility.yul\":14316:14320   */\n      dup6\n        /* \"#utility.yul\":14270:14337   */\n      tag_152\n      jump\t// in\n    tag_305:\n        /* \"#utility.yul\":14364:14365   */\n      0x00\n        /* \"#utility.yul\":14388:14392   */\n      0x20\n        /* \"#utility.yul\":14375:14392   */\n      swap1\n      pop\n        /* \"#utility.yul\":14420:14422   */\n      0x1f\n        /* \"#utility.yul\":14412:14418   */\n      dup4\n        /* \"#utility.yul\":14409:14423   */\n      gt\n        /* \"#utility.yul\":14437:14438   */\n      0x01\n        /* \"#utility.yul\":14432:15050   */\n      dup2\n      eq\n      tag_307\n      jumpi\n        /* \"#utility.yul\":15094:15095   */\n      0x00\n        /* \"#utility.yul\":15111:15117   */\n      dup5\n        /* \"#utility.yul\":15108:15185   */\n      iszero\n      tag_308\n      jumpi\n        /* \"#utility.yul\":15160:15169   */\n      dup3\n        /* \"#utility.yul\":15155:15158   */\n      dup8\n        /* \"#utility.yul\":15151:15170   */\n      add\n        /* \"#utility.yul\":15145:15171   */\n      mload\n        /* \"#utility.yul\":15136:15171   */\n      swap1\n      pop\n        /* \"#utility.yul\":15108:15185   */\n    tag_308:\n        /* \"#utility.yul\":15211:15278   */\n      tag_309\n        /* \"#utility.yul\":15271:15277   */\n      dup6\n        /* \"#utility.yul\":15264:15269   */\n      dup3\n        /* \"#utility.yul\":15211:15278   */\n      tag_155\n      jump\t// in\n    tag_309:\n        /* \"#utility.yul\":15205:15209   */\n      dup7\n        /* \"#utility.yul\":15198:15279   */\n      sstore\n        /* \"#utility.yul\":15067:15289   */\n      pop\n        /* \"#utility.yul\":14402:15289   */\n      jump(tag_306)\n        /* \"#utility.yul\":14432:15050   */\n    tag_307:\n        /* \"#utility.yul\":14484:14488   */\n      0x1f\n        /* \"#utility.yul\":14480:14489   */\n      not\n        /* \"#utility.yul\":14472:14478   */\n      dup5\n        /* \"#utility.yul\":14468:14490   */\n      and\n        /* \"#utility.yul\":14518:14555   */\n      tag_310\n        /* \"#utility.yul\":14550:14554   */\n      dup7\n        /* \"#utility.yul\":14518:14555   */\n      tag_141\n      jump\t// in\n    tag_310:\n        /* \"#utility.yul\":14577:14578   */\n      0x00\n        /* \"#utility.yul\":14591:14799   */\n    tag_311:\n        /* \"#utility.yul\":14605:14612   */\n      dup3\n        /* \"#utility.yul\":14602:14603   */\n      dup2\n        /* \"#utility.yul\":14599:14613   */\n      lt\n        /* \"#utility.yul\":14591:14799   */\n      iszero\n      tag_313\n      jumpi\n        /* \"#utility.yul\":14684:14693   */\n      dup5\n        /* \"#utility.yul\":14679:14682   */\n      dup10\n        /* \"#utility.yul\":14675:14694   */\n      add\n        /* \"#utility.yul\":14669:14695   */\n      mload\n        /* \"#utility.yul\":14661:14667   */\n      dup3\n        /* \"#utility.yul\":14654:14696   */\n      sstore\n        /* \"#utility.yul\":14735:14736   */\n      0x01\n        /* \"#utility.yul\":14727:14733   */\n      dup3\n        /* \"#utility.yul\":14723:14737   */\n      add\n        /* \"#utility.yul\":14713:14737   */\n      swap2\n      pop\n        /* \"#utility.yul\":14782:14784   */\n      0x20\n        /* \"#utility.yul\":14771:14780   */\n      dup6\n        /* \"#utility.yul\":14767:14785   */\n      add\n        /* \"#utility.yul\":14754:14785   */\n      swap5\n      pop\n        /* \"#utility.yul\":14628:14632   */\n      0x20\n        /* \"#utility.yul\":14625:14626   */\n      dup2\n        /* \"#utility.yul\":14621:14633   */\n      add\n        /* \"#utility.yul\":14616:14633   */\n      swap1\n      pop\n        /* \"#utility.yul\":14591:14799   */\n      jump(tag_311)\n    tag_313:\n        /* \"#utility.yul\":14827:14833   */\n      dup7\n        /* \"#utility.yul\":14818:14825   */\n      dup4\n        /* \"#utility.yul\":14815:14834   */\n      lt\n        /* \"#utility.yul\":14812:14991   */\n      iszero\n      tag_314\n      jumpi\n        /* \"#utility.yul\":14885:14894   */\n      dup5\n        /* \"#utility.yul\":14880:14883   */\n      dup10\n        /* \"#utility.yul\":14876:14895   */\n      add\n        /* \"#utility.yul\":14870:14896   */\n      mload\n        /* \"#utility.yul\":14928:14976   */\n      tag_315\n        /* \"#utility.yul\":14970:14974   */\n      0x1f\n        /* \"#utility.yul\":14962:14968   */\n      dup10\n        /* \"#utility.yul\":14958:14975   */\n      and\n        /* \"#utility.yul\":14947:14956   */\n      dup3\n        /* \"#utility.yul\":14928:14976   */\n      tag_154\n      jump\t// in\n    tag_315:\n        /* \"#utility.yul\":14920:14926   */\n      dup4\n        /* \"#utility.yul\":14913:14977   */\n      sstore\n        /* \"#utility.yul\":14835:14991   */\n      pop\n        /* \"#utility.yul\":14812:14991   */\n    tag_314:\n        /* \"#utility.yul\":15037:15038   */\n      0x01\n        /* \"#utility.yul\":15033:15034   */\n      0x02\n        /* \"#utility.yul\":15025:15031   */\n      dup9\n        /* \"#utility.yul\":15021:15035   */\n      mul\n        /* \"#utility.yul\":15017:15039   */\n      add\n        /* \"#utility.yul\":15011:15015   */\n      dup9\n        /* \"#utility.yul\":15004:15040   */\n      sstore\n        /* \"#utility.yul\":14439:15050   */\n      pop\n      pop\n      pop\n        /* \"#utility.yul\":14402:15289   */\n    tag_306:\n      pop\n        /* \"#utility.yul\":13992:15295   */\n      pop\n      pop\n      pop\n        /* \"#utility.yul\":13900:15295   */\n      pop\n      pop\n      jump\t// out\n        /* \"#utility.yul\":15301:15538   */\n    tag_156:\n        /* \"#utility.yul\":15441:15475   */\n      0x596f75206d7573742073656e64206120646f6e6174696f6e2076616c75652067\n        /* \"#utility.yul\":15437:15438   */\n      0x00\n        /* \"#utility.yul\":15429:15435   */\n      dup3\n        /* \"#utility.yul\":15425:15439   */\n      add\n        /* \"#utility.yul\":15418:15476   */\n      mstore\n        /* \"#utility.yul\":15510:15530   */\n      0x726561746572207468616e207a65726f3b200000000000000000000000000000\n        /* \"#utility.yul\":15505:15507   */\n      0x20\n        /* \"#utility.yul\":15497:15503   */\n      dup3\n        /* \"#utility.yul\":15493:15508   */\n      add\n        /* \"#utility.yul\":15486:15531   */\n      mstore\n        /* \"#utility.yul\":15301:15538   */\n      pop\n      jump\t// out\n        /* \"#utility.yul\":15544:15910   */\n    tag_157:\n        /* \"#utility.yul\":15686:15689   */\n      0x00\n        /* \"#utility.yul\":15707:15774   */\n      tag_318\n        /* \"#utility.yul\":15771:15773   */\n      0x32\n        /* \"#utility.yul\":15766:15769   */\n      dup4\n        /* \"#utility.yul\":15707:15774   */\n      tag_120\n      jump\t// in\n    tag_318:\n        /* \"#utility.yul\":15700:15774   */\n      swap2\n      pop\n        /* \"#utility.yul\":15783:15876   */\n      tag_319\n        /* \"#utility.yul\":15872:15875   */\n      dup3\n        /* \"#utility.yul\":15783:15876   */\n      tag_156\n      jump\t// in\n    tag_319:\n        /* \"#utility.yul\":15901:15903   */\n      0x40\n        /* \"#utility.yul\":15896:15899   */\n      dup3\n        /* \"#utility.yul\":15892:15904   */\n      add\n        /* \"#utility.yul\":15885:15904   */\n      swap1\n      pop\n        /* \"#utility.yul\":15544:15910   */\n      swap2\n      swap1\n      pop\n      jump\t// out\n        /* \"#utility.yul\":15916:16335   */\n    tag_104:\n        /* \"#utility.yul\":16082:16086   */\n      0x00\n        /* \"#utility.yul\":16120:16122   */\n      0x20\n        /* \"#utility.yul\":16109:16118   */\n      dup3\n        /* \"#utility.yul\":16105:16123   */\n      add\n        /* \"#utility.yul\":16097:16123   */\n      swap1\n      pop\n        /* \"#utility.yul\":16169:16178   */\n      dup2\n        /* \"#utility.yul\":16163:16167   */\n      dup2\n        /* \"#utility.yul\":16159:16179   */\n      sub\n        /* \"#utility.yul\":16155:16156   */\n      0x00\n        /* \"#utility.yul\":16144:16153   */\n      dup4\n        /* \"#utility.yul\":16140:16157   */\n      add\n        /* \"#utility.yul\":16133:16180   */\n      mstore\n        /* \"#utility.yul\":16197:16328   */\n      tag_321\n        /* \"#utility.yul\":16323:16327   */\n      dup2\n        /* \"#utility.yul\":16197:16328   */\n      tag_157\n      jump\t// in\n    tag_321:\n        /* \"#utility.yul\":16189:16328   */\n      swap1\n      pop\n        /* \"#utility.yul\":15916:16335   */\n      swap2\n      swap1\n      pop\n      jump\t// out\n        /* \"#utility.yul\":16341:16522   */\n    tag_158:\n        /* \"#utility.yul\":16481:16514   */\n      0x2043616e6e6f7420646f6e61746520746f20746869732063616d706169676e00\n        /* \"#utility.yul\":16477:16478   */\n      0x00\n        /* \"#utility.yul\":16469:16475   */\n      dup3\n        /* \"#utility.yul\":16465:16479   */\n      add\n        /* \"#utility.yul\":16458:16515   */\n      mstore\n        /* \"#utility.yul\":16341:16522   */\n      pop\n      jump\t// out\n        /* \"#utility.yul\":16528:16894   */\n    tag_159:\n        /* \"#utility.yul\":16670:16673   */\n      0x00\n        /* \"#utility.yul\":16691:16758   */\n      tag_324\n        /* \"#utility.yul\":16755:16757   */\n      0x1f\n        /* \"#utility.yul\":16750:16753   */\n      dup4\n        /* \"#utility.yul\":16691:16758   */\n      tag_120\n      jump\t// in\n    tag_324:\n        /* \"#utility.yul\":16684:16758   */\n      swap2\n      pop\n        /* \"#utility.yul\":16767:16860   */\n      tag_325\n        /* \"#utility.yul\":16856:16859   */\n      dup3\n        /* \"#utility.yul\":16767:16860   */\n      tag_158\n      jump\t// in\n    tag_325:\n        /* \"#utility.yul\":16885:16887   */\n      0x20\n        /* \"#utility.yul\":16880:16883   */\n      dup3\n        /* \"#utility.yul\":16876:16888   */\n      add\n        /* \"#utility.yul\":16869:16888   */\n      swap1\n      pop\n        /* \"#utility.yul\":16528:16894   */\n      swap2\n      swap1\n      pop\n      jump\t// out\n        /* \"#utility.yul\":16900:17319   */\n    tag_107:\n        /* \"#utility.yul\":17066:17070   */\n      0x00\n        /* \"#utility.yul\":17104:17106   */\n      0x20\n        /* \"#utility.yul\":17093:17102   */\n      dup3\n        /* \"#utility.yul\":17089:17107   */\n      add\n        /* \"#utility.yul\":17081:17107   */\n      swap1\n      pop\n        /* \"#utility.yul\":17153:17162   */\n      dup2\n        /* \"#utility.yul\":17147:17151   */\n      dup2\n        /* \"#utility.yul\":17143:17163   */\n      sub\n        /* \"#utility.yul\":17139:17140   */\n      0x00\n        /* \"#utility.yul\":17128:17137   */\n      dup4\n        /* \"#utility.yul\":17124:17141   */\n      add\n        /* \"#utility.yul\":17117:17164   */\n      mstore\n        /* \"#utility.yul\":17181:17312   */\n      tag_327\n        /* \"#utility.yul\":17307:17311   */\n      dup2\n        /* \"#utility.yul\":17181:17312   */\n      tag_159\n      jump\t// in\n    tag_327:\n        /* \"#utility.yul\":17173:17312   */\n      swap1\n      pop\n        /* \"#utility.yul\":16900:17319   */\n      swap2\n      swap1\n      pop\n      jump\t// out\n        /* \"#utility.yul\":17325:17516   */\n    tag_109:\n        /* \"#utility.yul\":17365:17368   */\n      0x00\n        /* \"#utility.yul\":17384:17404   */\n      tag_329\n        /* \"#utility.yul\":17402:17403   */\n      dup3\n        /* \"#utility.yul\":17384:17404   */\n      tag_113\n      jump\t// in\n    tag_329:\n        /* \"#utility.yul\":17379:17404   */\n      swap2\n      pop\n        /* \"#utility.yul\":17418:17438   */\n      tag_330\n        /* \"#utility.yul\":17436:17437   */\n      dup4\n        /* \"#utility.yul\":17418:17438   */\n      tag_113\n      jump\t// in\n    tag_330:\n        /* \"#utility.yul\":17413:17438   */\n      swap3\n      pop\n        /* \"#utility.yul\":17461:17462   */\n      dup3\n        /* \"#utility.yul\":17458:17459   */\n      dup3\n        /* \"#utility.yul\":17454:17463   */\n      add\n        /* \"#utility.yul\":17447:17463   */\n      swap1\n      pop\n        /* \"#utility.yul\":17482:17485   */\n      dup1\n        /* \"#utility.yul\":17479:17480   */\n      dup3\n        /* \"#utility.yul\":17476:17486   */\n      gt\n        /* \"#utility.yul\":17473:17509   */\n      iszero\n      tag_331\n      jumpi\n        /* \"#utility.yul\":17489:17507   */\n      tag_332\n      tag_136\n      jump\t// in\n    tag_332:\n        /* \"#utility.yul\":17473:17509   */\n    tag_331:\n        /* \"#utility.yul\":17325:17516   */\n      swap3\n      swap2\n      pop\n      pop\n      jump\t// out\n\n    auxdata: 0xa264697066735822122095a2c875c98baedbc083b60c4ac248c2423c7f5a97c4d2762bf75116a8241a1864736f6c634300081a0033\n}\n",
				"bytecode": {
					"linkReferences": {},
					"object": "608060405260645f555f6001553480156016575f80fd5b506114d3806100245f395ff3fe608060405260043610610054575f3560e01c8063141961bc146100585780632e1a7d4d1461009a57806361b8ce8c146100c2578063ddca3f43146100ec578063ec67148614610116578063f14faf6f1461013e575b5f80fd5b348015610063575f80fd5b5061007e60048036038101906100799190610bdc565b61015a565b6040516100919796959493929190610cdf565b60405180910390f35b3480156100a5575f80fd5b506100c060048036038101906100bb9190610bdc565b6103db565b005b3480156100cd575f80fd5b506100d66107f0565b6040516100e39190610d68565b60405180910390f35b3480156100f7575f80fd5b506101006107f6565b60405161010d9190610d68565b60405180910390f35b348015610121575f80fd5b5061013c60048036038101906101379190610de2565b6107fb565b005b61015860048036038101906101539190610bdc565b610a79565b005b6002602052805f5260405f205f91509050805f015f9054906101000a900473ffffffffffffffffffffffffffffffffffffffff169080600101805461019e90610ef3565b80601f01602080910402602001604051908101604052809291908181526020018280546101ca90610ef3565b80156102155780601f106101ec57610100808354040283529160200191610215565b820191905f5260205f20905b8154815290600101906020018083116101f857829003601f168201915b50505050509080600201805461022a90610ef3565b80601f016020809104026020016040519081016040528092919081815260200182805461025690610ef3565b80156102a15780601f10610278576101008083540402835291602001916102a1565b820191905f5260205f20905b81548152906001019060200180831161028457829003601f168201915b5050505050908060030180546102b690610ef3565b80601f01602080910402602001604051908101604052809291908181526020018280546102e290610ef3565b801561032d5780601f106103045761010080835404028352916020019161032d565b820191905f5260205f20905b81548152906001019060200180831161031057829003601f168201915b50505050509080600401805461034290610ef3565b80601f016020809104026020016040519081016040528092919081815260200182805461036e90610ef3565b80156103b95780601f10610390576101008083540402835291602001916103b9565b820191905f5260205f20905b81548152906001019060200180831161039c57829003601f168201915b505050505090806005015490806006015f9054906101000a900460ff16905087565b5f60025f8381526020019081526020015f206040518060e00160405290815f82015f9054906101000a900473ffffffffffffffffffffffffffffffffffffffff1673ffffffffffffffffffffffffffffffffffffffff1673ffffffffffffffffffffffffffffffffffffffff16815260200160018201805461045c90610ef3565b80601f016020809104026020016040519081016040528092919081815260200182805461048890610ef3565b80156104d35780601f106104aa576101008083540402835291602001916104d3565b820191905f5260205f20905b8154815290600101906020018083116104b657829003601f168201915b505050505081526020016002820180546104ec90610ef3565b80601f016020809104026020016040519081016040528092919081815260200182805461051890610ef3565b80156105635780601f1061053a57610100808354040283529160200191610563565b820191905f5260205f20905b81548152906001019060200180831161054657829003601f168201915b5050505050815260200160038201805461057c90610ef3565b80601f01602080910402602001604051908101604052809291908181526020018280546105a890610ef3565b80156105f35780601f106105ca576101008083540402835291602001916105f3565b820191905f5260205f20905b8154815290600101906020018083116105d657829003601f168201915b5050505050815260200160048201805461060c90610ef3565b80601f016020809104026020016040519081016040528092919081815260200182805461063890610ef3565b80156106835780601f1061065a57610100808354040283529160200191610683565b820191905f5260205f20905b81548152906001019060200180831161066657829003601f168201915b5050505050815260200160058201548152602001600682015f9054906101000a900460ff16151515158152505090503373ffffffffffffffffffffffffffffffffffffffff16815f015173ffffffffffffffffffffffffffffffffffffffff1614610723576040517f08c379a000000000000000000000000000000000000000000000000000000000815260040161071a90610f6d565b60405180910390fd5b600115158160c0015115151461076e576040517f08c379a000000000000000000000000000000000000000000000000000000000815260040161076590610fd5565b60405180910390fd5b5f815f015190508073ffffffffffffffffffffffffffffffffffffffff165f548360a0015161079d9190611020565b6040516107a990611080565b5f6040518083038185875af1925050503d805f81146107e3576040519150601f19603f3d011682016040523d82523d5f602084013e6107e8565b606091505b505050505050565b60015481565b5f5481565b610803610b4f565b88888080601f0160208091040260200160405190810160405280939291908181526020018383808284375f81840152601f19601f82011690508083019250505050505050816020018190525086868080601f0160208091040260200160405190810160405280939291908181526020018383808284375f81840152601f19601f82011690508083019250505050505050816040018190525084848080601f0160208091040260200160405190810160405280939291908181526020018383808284375f81840152601f19601f82011690508083019250505050505050816060018190525082828080601f0160208091040260200160405190810160405280939291908181526020018383808284375f81840152601f19601f82011690508083019250505050505050816080018190525060018160c001901515908115158152505033815f019073ffffffffffffffffffffffffffffffffffffffff16908173ffffffffffffffffffffffffffffffffffffffff168152505060015f81548092919061098d90611094565b91905055508060025f60015481526020019081526020015f205f820151815f015f6101000a81548173ffffffffffffffffffffffffffffffffffffffff021916908373ffffffffffffffffffffffffffffffffffffffff16021790555060208201518160010190816109ff91906112a5565b506040820151816002019081610a1591906112a5565b506060820151816003019081610a2b91906112a5565b506080820151816004019081610a4191906112a5565b5060a0820151816005015560c0820151816006015f6101000a81548160ff021916908315150217905550905050505050505050505050565b5f3411610abb576040517f08c379a0000000000000000000000000000000000000000000000000000000008152600401610ab2906113e4565b60405180910390fd5b6001151560025f8381526020019081526020015f206006015f9054906101000a900460ff16151514610b22576040517f08c379a0000000000000000000000000000000000000000000000000000000008152600401610b199061144c565b60405180910390fd5b3460025f8381526020019081526020015f206005015f828254610b45919061146a565b9250508190555050565b6040518060e001604052805f73ffffffffffffffffffffffffffffffffffffffff168152602001606081526020016060815260200160608152602001606081526020015f81526020015f151581525090565b5f80fd5b5f80fd5b5f819050919050565b610bbb81610ba9565b8114610bc5575f80fd5b50565b5f81359050610bd681610bb2565b92915050565b5f60208284031215610bf157610bf0610ba1565b5b5f610bfe84828501610bc8565b91505092915050565b5f73ffffffffffffffffffffffffffffffffffffffff82169050919050565b5f610c3082610c07565b9050919050565b610c4081610c26565b82525050565b5f81519050919050565b5f82825260208201905092915050565b8281835e5f83830152505050565b5f601f19601f8301169050919050565b5f610c8882610c46565b610c928185610c50565b9350610ca2818560208601610c60565b610cab81610c6e565b840191505092915050565b610cbf81610ba9565b82525050565b5f8115159050919050565b610cd981610cc5565b82525050565b5f60e082019050610cf25f83018a610c37565b8181036020830152610d048189610c7e565b90508181036040830152610d188188610c7e565b90508181036060830152610d2c8187610c7e565b90508181036080830152610d408186610c7e565b9050610d4f60a0830185610cb6565b610d5c60c0830184610cd0565b98975050505050505050565b5f602082019050610d7b5f830184610cb6565b92915050565b5f80fd5b5f80fd5b5f80fd5b5f8083601f840112610da257610da1610d81565b5b8235905067ffffffffffffffff811115610dbf57610dbe610d85565b5b602083019150836001820283011115610ddb57610dda610d89565b5b9250929050565b5f805f805f805f806080898b031215610dfe57610dfd610ba1565b5b5f89013567ffffffffffffffff811115610e1b57610e1a610ba5565b5b610e278b828c01610d8d565b9850985050602089013567ffffffffffffffff811115610e4a57610e49610ba5565b5b610e568b828c01610d8d565b9650965050604089013567ffffffffffffffff811115610e7957610e78610ba5565b5b610e858b828c01610d8d565b9450945050606089013567ffffffffffffffff811115610ea857610ea7610ba5565b5b610eb48b828c01610d8d565b92509250509295985092959890939650565b7f4e487b71000000000000000000000000000000000000000000000000000000005f52602260045260245ffd5b5f6002820490506001821680610f0a57607f821691505b602082108103610f1d57610f1c610ec6565b5b50919050565b7f596f7520666f206e6f742068617665207065726d697373696f6e0000000000005f82015250565b5f610f57601a83610c50565b9150610f6282610f23565b602082019050919050565b5f6020820190508181035f830152610f8481610f4b565b9050919050565b7f20546869732063616d706169676e20697320636c6f73656400000000000000005f82015250565b5f610fbf601883610c50565b9150610fca82610f8b565b602082019050919050565b5f6020820190508181035f830152610fec81610fb3565b9050919050565b7f4e487b71000000000000000000000000000000000000000000000000000000005f52601160045260245ffd5b5f61102a82610ba9565b915061103583610ba9565b925082820390508181111561104d5761104c610ff3565b5b92915050565b5f81905092915050565b50565b5f61106b5f83611053565b91506110768261105d565b5f82019050919050565b5f61108a82611060565b9150819050919050565b5f61109e82610ba9565b91507fffffffffffffffffffffffffffffffffffffffffffffffffffffffffffffffff82036110d0576110cf610ff3565b5b600182019050919050565b7f4e487b71000000000000000000000000000000000000000000000000000000005f52604160045260245ffd5b5f819050815f5260205f209050919050565b5f6020601f8301049050919050565b5f82821b905092915050565b5f600883026111647fffffffffffffffffffffffffffffffffffffffffffffffffffffffffffffffff82611129565b61116e8683611129565b95508019841693508086168417925050509392505050565b5f819050919050565b5f6111a96111a461119f84610ba9565b611186565b610ba9565b9050919050565b5f819050919050565b6111c28361118f565b6111d66111ce826111b0565b848454611135565b825550505050565b5f90565b6111ea6111de565b6111f58184846111b9565b505050565b5b818110156112185761120d5f826111e2565b6001810190506111fb565b5050565b601f82111561125d5761122e81611108565b6112378461111a565b81016020851015611246578190505b61125a6112528561111a565b8301826111fa565b50505b505050565b5f82821c905092915050565b5f61127d5f1984600802611262565b1980831691505092915050565b5f611295838361126e565b9150826002028217905092915050565b6112ae82610c46565b67ffffffffffffffff8111156112c7576112c66110db565b5b6112d18254610ef3565b6112dc82828561121c565b5f60209050601f83116001811461130d575f84156112fb578287015190505b611305858261128a565b86555061136c565b601f19841661131b86611108565b5f5b828110156113425784890151825560018201915060208501945060208101905061131d565b8683101561135f578489015161135b601f89168261126e565b8355505b6001600288020188555050505b505050505050565b7f596f75206d7573742073656e64206120646f6e6174696f6e2076616c756520675f8201527f726561746572207468616e207a65726f3b200000000000000000000000000000602082015250565b5f6113ce603283610c50565b91506113d982611374565b604082019050919050565b5f6020820190508181035f8301526113fb816113c2565b9050919050565b7f2043616e6e6f7420646f6e61746520746f20746869732063616d706169676e005f82015250565b5f611436601f83610c50565b915061144182611402565b602082019050919050565b5f6020820190508181035f8301526114638161142a565b9050919050565b5f61147482610ba9565b915061147f83610ba9565b925082820190508082111561149757611496610ff3565b5b9291505056fea264697066735822122095a2c875c98baedbc083b60c4ac248c2423c7f5a97c4d2762bf75116a8241a1864736f6c634300081a0033",
					"opcodes": "PUSH1 0x80 PUSH1 0x40 MSTORE PUSH1 0x64 PUSH0 SSTORE PUSH0 PUSH1 0x1 SSTORE CALLVALUE DUP1 ISZERO PUSH1 0x16 JUMPI PUSH0 DUP1 REVERT JUMPDEST POP PUSH2 0x14D3 DUP1 PUSH2 0x24 PUSH0 CODECOPY PUSH0 RETURN INVALID PUSH1 0x80 PUSH1 0x40 MSTORE PUSH1 0x4 CALLDATASIZE LT PUSH2 0x54 JUMPI PUSH0 CALLDATALOAD PUSH1 0xE0 SHR DUP1 PUSH4 0x141961BC EQ PUSH2 0x58 JUMPI DUP1 PUSH4 0x2E1A7D4D EQ PUSH2 0x9A JUMPI DUP1 PUSH4 0x61B8CE8C EQ PUSH2 0xC2 JUMPI DUP1 PUSH4 0xDDCA3F43 EQ PUSH2 0xEC JUMPI DUP1 PUSH4 0xEC671486 EQ PUSH2 0x116 JUMPI DUP1 PUSH4 0xF14FAF6F EQ PUSH2 0x13E JUMPI JUMPDEST PUSH0 DUP1 REVERT JUMPDEST CALLVALUE DUP1 ISZERO PUSH2 0x63 JUMPI PUSH0 DUP1 REVERT JUMPDEST POP PUSH2 0x7E PUSH1 0x4 DUP1 CALLDATASIZE SUB DUP2 ADD SWAP1 PUSH2 0x79 SWAP2 SWAP1 PUSH2 0xBDC JUMP JUMPDEST PUSH2 0x15A JUMP JUMPDEST PUSH1 0x40 MLOAD PUSH2 0x91 SWAP8 SWAP7 SWAP6 SWAP5 SWAP4 SWAP3 SWAP2 SWAP1 PUSH2 0xCDF JUMP JUMPDEST PUSH1 0x40 MLOAD DUP1 SWAP2 SUB SWAP1 RETURN JUMPDEST CALLVALUE DUP1 ISZERO PUSH2 0xA5 JUMPI PUSH0 DUP1 REVERT JUMPDEST POP PUSH2 0xC0 PUSH1 0x4 DUP1 CALLDATASIZE SUB DUP2 ADD SWAP1 PUSH2 0xBB SWAP2 SWAP1 PUSH2 0xBDC JUMP JUMPDEST PUSH2 0x3DB JUMP JUMPDEST STOP JUMPDEST CALLVALUE DUP1 ISZERO PUSH2 0xCD JUMPI PUSH0 DUP1 REVERT JUMPDEST POP PUSH2 0xD6 PUSH2 0x7F0 JUMP JUMPDEST PUSH1 0x40 MLOAD PUSH2 0xE3 SWAP2 SWAP1 PUSH2 0xD68 JUMP JUMPDEST PUSH1 0x40 MLOAD DUP1 SWAP2 SUB SWAP1 RETURN JUMPDEST CALLVALUE DUP1 ISZERO PUSH2 0xF7 JUMPI PUSH0 DUP1 REVERT JUMPDEST POP PUSH2 0x100 PUSH2 0x7F6 JUMP JUMPDEST PUSH1 0x40 MLOAD PUSH2 0x10D SWAP2 SWAP1 PUSH2 0xD68 JUMP JUMPDEST PUSH1 0x40 MLOAD DUP1 SWAP2 SUB SWAP1 RETURN JUMPDEST CALLVALUE DUP1 ISZERO PUSH2 0x121 JUMPI PUSH0 DUP1 REVERT JUMPDEST POP PUSH2 0x13C PUSH1 0x4 DUP1 CALLDATASIZE SUB DUP2 ADD SWAP1 PUSH2 0x137 SWAP2 SWAP1 PUSH2 0xDE2 JUMP JUMPDEST PUSH2 0x7FB JUMP JUMPDEST STOP JUMPDEST PUSH2 0x158 PUSH1 0x4 DUP1 CALLDATASIZE SUB DUP2 ADD SWAP1 PUSH2 0x153 SWAP2 SWAP1 PUSH2 0xBDC JUMP JUMPDEST PUSH2 0xA79 JUMP JUMPDEST STOP JUMPDEST PUSH1 0x2 PUSH1 0x20 MSTORE DUP1 PUSH0 MSTORE PUSH1 0x40 PUSH0 KECCAK256 PUSH0 SWAP2 POP SWAP1 POP DUP1 PUSH0 ADD PUSH0 SWAP1 SLOAD SWAP1 PUSH2 0x100 EXP SWAP1 DIV PUSH20 0xFFFFFFFFFFFFFFFFFFFFFFFFFFFFFFFFFFFFFFFF AND SWAP1 DUP1 PUSH1 0x1 ADD DUP1 SLOAD PUSH2 0x19E SWAP1 PUSH2 0xEF3 JUMP JUMPDEST DUP1 PUSH1 0x1F ADD PUSH1 0x20 DUP1 SWAP2 DIV MUL PUSH1 0x20 ADD PUSH1 0x40 MLOAD SWAP1 DUP2 ADD PUSH1 0x40 MSTORE DUP1 SWAP3 SWAP2 SWAP1 DUP2 DUP2 MSTORE PUSH1 0x20 ADD DUP3 DUP1 SLOAD PUSH2 0x1CA SWAP1 PUSH2 0xEF3 JUMP JUMPDEST DUP1 ISZERO PUSH2 0x215 JUMPI DUP1 PUSH1 0x1F LT PUSH2 0x1EC JUMPI PUSH2 0x100 DUP1 DUP4 SLOAD DIV MUL DUP4 MSTORE SWAP2 PUSH1 0x20 ADD SWAP2 PUSH2 0x215 JUMP JUMPDEST DUP3 ADD SWAP2 SWAP1 PUSH0 MSTORE PUSH1 0x20 PUSH0 KECCAK256 SWAP1 JUMPDEST DUP2 SLOAD DUP2 MSTORE SWAP1 PUSH1 0x1 ADD SWAP1 PUSH1 0x20 ADD DUP1 DUP4 GT PUSH2 0x1F8 JUMPI DUP3 SWAP1 SUB PUSH1 0x1F AND DUP3 ADD SWAP2 JUMPDEST POP POP POP POP POP SWAP1 DUP1 PUSH1 0x2 ADD DUP1 SLOAD PUSH2 0x22A SWAP1 PUSH2 0xEF3 JUMP JUMPDEST DUP1 PUSH1 0x1F ADD PUSH1 0x20 DUP1 SWAP2 DIV MUL PUSH1 0x20 ADD PUSH1 0x40 MLOAD SWAP1 DUP2 ADD PUSH1 0x40 MSTORE DUP1 SWAP3 SWAP2 SWAP1 DUP2 DUP2 MSTORE PUSH1 0x20 ADD DUP3 DUP1 SLOAD PUSH2 0x256 SWAP1 PUSH2 0xEF3 JUMP JUMPDEST DUP1 ISZERO PUSH2 0x2A1 JUMPI DUP1 PUSH1 0x1F LT PUSH2 0x278 JUMPI PUSH2 0x100 DUP1 DUP4 SLOAD DIV MUL DUP4 MSTORE SWAP2 PUSH1 0x20 ADD SWAP2 PUSH2 0x2A1 JUMP JUMPDEST DUP3 ADD SWAP2 SWAP1 PUSH0 MSTORE PUSH1 0x20 PUSH0 KECCAK256 SWAP1 JUMPDEST DUP2 SLOAD DUP2 MSTORE SWAP1 PUSH1 0x1 ADD SWAP1 PUSH1 0x20 ADD DUP1 DUP4 GT PUSH2 0x284 JUMPI DUP3 SWAP1 SUB PUSH1 0x1F AND DUP3 ADD SWAP2 JUMPDEST POP POP POP POP POP SWAP1 DUP1 PUSH1 0x3 ADD DUP1 SLOAD PUSH2 0x2B6 SWAP1 PUSH2 0xEF3 JUMP JUMPDEST DUP1 PUSH1 0x1F ADD PUSH1 0x20 DUP1 SWAP2 DIV MUL PUSH1 0x20 ADD PUSH1 0x40 MLOAD SWAP1 DUP2 ADD PUSH1 0x40 MSTORE DUP1 SWAP3 SWAP2 SWAP1 DUP2 DUP2 MSTORE PUSH1 0x20 ADD DUP3 DUP1 SLOAD PUSH2 0x2E2 SWAP1 PUSH2 0xEF3 JUMP JUMPDEST DUP1 ISZERO PUSH2 0x32D JUMPI DUP1 PUSH1 0x1F LT PUSH2 0x304 JUMPI PUSH2 0x100 DUP1 DUP4 SLOAD DIV MUL DUP4 MSTORE SWAP2 PUSH1 0x20 ADD SWAP2 PUSH2 0x32D JUMP JUMPDEST DUP3 ADD SWAP2 SWAP1 PUSH0 MSTORE PUSH1 0x20 PUSH0 KECCAK256 SWAP1 JUMPDEST DUP2 SLOAD DUP2 MSTORE SWAP1 PUSH1 0x1 ADD SWAP1 PUSH1 0x20 ADD DUP1 DUP4 GT PUSH2 0x310 JUMPI DUP3 SWAP1 SUB PUSH1 0x1F AND DUP3 ADD SWAP2 JUMPDEST POP POP POP POP POP SWAP1 DUP1 PUSH1 0x4 ADD DUP1 SLOAD PUSH2 0x342 SWAP1 PUSH2 0xEF3 JUMP JUMPDEST DUP1 PUSH1 0x1F ADD PUSH1 0x20 DUP1 SWAP2 DIV MUL PUSH1 0x20 ADD PUSH1 0x40 MLOAD SWAP1 DUP2 ADD PUSH1 0x40 MSTORE DUP1 SWAP3 SWAP2 SWAP1 DUP2 DUP2 MSTORE PUSH1 0x20 ADD DUP3 DUP1 SLOAD PUSH2 0x36E SWAP1 PUSH2 0xEF3 JUMP JUMPDEST DUP1 ISZERO PUSH2 0x3B9 JUMPI DUP1 PUSH1 0x1F LT PUSH2 0x390 JUMPI PUSH2 0x100 DUP1 DUP4 SLOAD DIV MUL DUP4 MSTORE SWAP2 PUSH1 0x20 ADD SWAP2 PUSH2 0x3B9 JUMP JUMPDEST DUP3 ADD SWAP2 SWAP1 PUSH0 MSTORE PUSH1 0x20 PUSH0 KECCAK256 SWAP1 JUMPDEST DUP2 SLOAD DUP2 MSTORE SWAP1 PUSH1 0x1 ADD SWAP1 PUSH1 0x20 ADD DUP1 DUP4 GT PUSH2 0x39C JUMPI DUP3 SWAP1 SUB PUSH1 0x1F AND DUP3 ADD SWAP2 JUMPDEST POP POP POP POP POP SWAP1 DUP1 PUSH1 0x5 ADD SLOAD SWAP1 DUP1 PUSH1 0x6 ADD PUSH0 SWAP1 SLOAD SWAP1 PUSH2 0x100 EXP SWAP1 DIV PUSH1 0xFF AND SWAP1 POP DUP8 JUMP JUMPDEST PUSH0 PUSH1 0x2 PUSH0 DUP4 DUP2 MSTORE PUSH1 0x20 ADD SWAP1 DUP2 MSTORE PUSH1 0x20 ADD PUSH0 KECCAK256 PUSH1 0x40 MLOAD DUP1 PUSH1 0xE0 ADD PUSH1 0x40 MSTORE SWAP1 DUP2 PUSH0 DUP3 ADD PUSH0 SWAP1 SLOAD SWAP1 PUSH2 0x100 EXP SWAP1 DIV PUSH20 0xFFFFFFFFFFFFFFFFFFFFFFFFFFFFFFFFFFFFFFFF AND PUSH20 0xFFFFFFFFFFFFFFFFFFFFFFFFFFFFFFFFFFFFFFFF AND PUSH20 0xFFFFFFFFFFFFFFFFFFFFFFFFFFFFFFFFFFFFFFFF AND DUP2 MSTORE PUSH1 0x20 ADD PUSH1 0x1 DUP3 ADD DUP1 SLOAD PUSH2 0x45C SWAP1 PUSH2 0xEF3 JUMP JUMPDEST DUP1 PUSH1 0x1F ADD PUSH1 0x20 DUP1 SWAP2 DIV MUL PUSH1 0x20 ADD PUSH1 0x40 MLOAD SWAP1 DUP2 ADD PUSH1 0x40 MSTORE DUP1 SWAP3 SWAP2 SWAP1 DUP2 DUP2 MSTORE PUSH1 0x20 ADD DUP3 DUP1 SLOAD PUSH2 0x488 SWAP1 PUSH2 0xEF3 JUMP JUMPDEST DUP1 ISZERO PUSH2 0x4D3 JUMPI DUP1 PUSH1 0x1F LT PUSH2 0x4AA JUMPI PUSH2 0x100 DUP1 DUP4 SLOAD DIV MUL DUP4 MSTORE SWAP2 PUSH1 0x20 ADD SWAP2 PUSH2 0x4D3 JUMP JUMPDEST DUP3 ADD SWAP2 SWAP1 PUSH0 MSTORE PUSH1 0x20 PUSH0 KECCAK256 SWAP1 JUMPDEST DUP2 SLOAD DUP2 MSTORE SWAP1 PUSH1 0x1 ADD SWAP1 PUSH1 0x20 ADD DUP1 DUP4 GT PUSH2 0x4B6 JUMPI DUP3 SWAP1 SUB PUSH1 0x1F AND DUP3 ADD SWAP2 JUMPDEST POP POP POP POP POP DUP2 MSTORE PUSH1 0x20 ADD PUSH1 0x2 DUP3 ADD DUP1 SLOAD PUSH2 0x4EC SWAP1 PUSH2 0xEF3 JUMP JUMPDEST DUP1 PUSH1 0x1F ADD PUSH1 0x20 DUP1 SWAP2 DIV MUL PUSH1 0x20 ADD PUSH1 0x40 MLOAD SWAP1 DUP2 ADD PUSH1 0x40 MSTORE DUP1 SWAP3 SWAP2 SWAP1 DUP2 DUP2 MSTORE PUSH1 0x20 ADD DUP3 DUP1 SLOAD PUSH2 0x518 SWAP1 PUSH2 0xEF3 JUMP JUMPDEST DUP1 ISZERO PUSH2 0x563 JUMPI DUP1 PUSH1 0x1F LT PUSH2 0x53A JUMPI PUSH2 0x100 DUP1 DUP4 SLOAD DIV MUL DUP4 MSTORE SWAP2 PUSH1 0x20 ADD SWAP2 PUSH2 0x563 JUMP JUMPDEST DUP3 ADD SWAP2 SWAP1 PUSH0 MSTORE PUSH1 0x20 PUSH0 KECCAK256 SWAP1 JUMPDEST DUP2 SLOAD DUP2 MSTORE SWAP1 PUSH1 0x1 ADD SWAP1 PUSH1 0x20 ADD DUP1 DUP4 GT PUSH2 0x546 JUMPI DUP3 SWAP1 SUB PUSH1 0x1F AND DUP3 ADD SWAP2 JUMPDEST POP POP POP POP POP DUP2 MSTORE PUSH1 0x20 ADD PUSH1 0x3 DUP3 ADD DUP1 SLOAD PUSH2 0x57C SWAP1 PUSH2 0xEF3 JUMP JUMPDEST DUP1 PUSH1 0x1F ADD PUSH1 0x20 DUP1 SWAP2 DIV MUL PUSH1 0x20 ADD PUSH1 0x40 MLOAD SWAP1 DUP2 ADD PUSH1 0x40 MSTORE DUP1 SWAP3 SWAP2 SWAP1 DUP2 DUP2 MSTORE PUSH1 0x20 ADD DUP3 DUP1 SLOAD PUSH2 0x5A8 SWAP1 PUSH2 0xEF3 JUMP JUMPDEST DUP1 ISZERO PUSH2 0x5F3 JUMPI DUP1 PUSH1 0x1F LT PUSH2 0x5CA JUMPI PUSH2 0x100 DUP1 DUP4 SLOAD DIV MUL DUP4 MSTORE SWAP2 PUSH1 0x20 ADD SWAP2 PUSH2 0x5F3 JUMP JUMPDEST DUP3 ADD SWAP2 SWAP1 PUSH0 MSTORE PUSH1 0x20 PUSH0 KECCAK256 SWAP1 JUMPDEST DUP2 SLOAD DUP2 MSTORE SWAP1 PUSH1 0x1 ADD SWAP1 PUSH1 0x20 ADD DUP1 DUP4 GT PUSH2 0x5D6 JUMPI DUP3 SWAP1 SUB PUSH1 0x1F AND DUP3 ADD SWAP2 JUMPDEST POP POP POP POP POP DUP2 MSTORE PUSH1 0x20 ADD PUSH1 0x4 DUP3 ADD DUP1 SLOAD PUSH2 0x60C SWAP1 PUSH2 0xEF3 JUMP JUMPDEST DUP1 PUSH1 0x1F ADD PUSH1 0x20 DUP1 SWAP2 DIV MUL PUSH1 0x20 ADD PUSH1 0x40 MLOAD SWAP1 DUP2 ADD PUSH1 0x40 MSTORE DUP1 SWAP3 SWAP2 SWAP1 DUP2 DUP2 MSTORE PUSH1 0x20 ADD DUP3 DUP1 SLOAD PUSH2 0x638 SWAP1 PUSH2 0xEF3 JUMP JUMPDEST DUP1 ISZERO PUSH2 0x683 JUMPI DUP1 PUSH1 0x1F LT PUSH2 0x65A JUMPI PUSH2 0x100 DUP1 DUP4 SLOAD DIV MUL DUP4 MSTORE SWAP2 PUSH1 0x20 ADD SWAP2 PUSH2 0x683 JUMP JUMPDEST DUP3 ADD SWAP2 SWAP1 PUSH0 MSTORE PUSH1 0x20 PUSH0 KECCAK256 SWAP1 JUMPDEST DUP2 SLOAD DUP2 MSTORE SWAP1 PUSH1 0x1 ADD SWAP1 PUSH1 0x20 ADD DUP1 DUP4 GT PUSH2 0x666 JUMPI DUP3 SWAP1 SUB PUSH1 0x1F AND DUP3 ADD SWAP2 JUMPDEST POP POP POP POP POP DUP2 MSTORE PUSH1 0x20 ADD PUSH1 0x5 DUP3 ADD SLOAD DUP2 MSTORE PUSH1 0x20 ADD PUSH1 0x6 DUP3 ADD PUSH0 SWAP1 SLOAD SWAP1 PUSH2 0x100 EXP SWAP1 DIV PUSH1 0xFF AND ISZERO ISZERO ISZERO ISZERO DUP2 MSTORE POP POP SWAP1 POP CALLER PUSH20 0xFFFFFFFFFFFFFFFFFFFFFFFFFFFFFFFFFFFFFFFF AND DUP2 PUSH0 ADD MLOAD PUSH20 0xFFFFFFFFFFFFFFFFFFFFFFFFFFFFFFFFFFFFFFFF AND EQ PUSH2 0x723 JUMPI PUSH1 0x40 MLOAD PUSH32 0x8C379A000000000000000000000000000000000000000000000000000000000 DUP2 MSTORE PUSH1 0x4 ADD PUSH2 0x71A SWAP1 PUSH2 0xF6D JUMP JUMPDEST PUSH1 0x40 MLOAD DUP1 SWAP2 SUB SWAP1 REVERT JUMPDEST PUSH1 0x1 ISZERO ISZERO DUP2 PUSH1 0xC0 ADD MLOAD ISZERO ISZERO EQ PUSH2 0x76E JUMPI PUSH1 0x40 MLOAD PUSH32 0x8C379A000000000000000000000000000000000000000000000000000000000 DUP2 MSTORE PUSH1 0x4 ADD PUSH2 0x765 SWAP1 PUSH2 0xFD5 JUMP JUMPDEST PUSH1 0x40 MLOAD DUP1 SWAP2 SUB SWAP1 REVERT JUMPDEST PUSH0 DUP2 PUSH0 ADD MLOAD SWAP1 POP DUP1 PUSH20 0xFFFFFFFFFFFFFFFFFFFFFFFFFFFFFFFFFFFFFFFF AND PUSH0 SLOAD DUP4 PUSH1 0xA0 ADD MLOAD PUSH2 0x79D SWAP2 SWAP1 PUSH2 0x1020 JUMP JUMPDEST PUSH1 0x40 MLOAD PUSH2 0x7A9 SWAP1 PUSH2 0x1080 JUMP JUMPDEST PUSH0 PUSH1 0x40 MLOAD DUP1 DUP4 SUB DUP2 DUP6 DUP8 GAS CALL SWAP3 POP POP POP RETURNDATASIZE DUP1 PUSH0 DUP2 EQ PUSH2 0x7E3 JUMPI PUSH1 0x40 MLOAD SWAP2 POP PUSH1 0x1F NOT PUSH1 0x3F RETURNDATASIZE ADD AND DUP3 ADD PUSH1 0x40 MSTORE RETURNDATASIZE DUP3 MSTORE RETURNDATASIZE PUSH0 PUSH1 0x20 DUP5 ADD RETURNDATACOPY PUSH2 0x7E8 JUMP JUMPDEST PUSH1 0x60 SWAP2 POP JUMPDEST POP POP POP POP POP POP JUMP JUMPDEST PUSH1 0x1 SLOAD DUP2 JUMP JUMPDEST PUSH0 SLOAD DUP2 JUMP JUMPDEST PUSH2 0x803 PUSH2 0xB4F JUMP JUMPDEST DUP9 DUP9 DUP1 DUP1 PUSH1 0x1F ADD PUSH1 0x20 DUP1 SWAP2 DIV MUL PUSH1 0x20 ADD PUSH1 0x40 MLOAD SWAP1 DUP2 ADD PUSH1 0x40 MSTORE DUP1 SWAP4 SWAP3 SWAP2 SWAP1 DUP2 DUP2 MSTORE PUSH1 0x20 ADD DUP4 DUP4 DUP1 DUP3 DUP5 CALLDATACOPY PUSH0 DUP2 DUP5 ADD MSTORE PUSH1 0x1F NOT PUSH1 0x1F DUP3 ADD AND SWAP1 POP DUP1 DUP4 ADD SWAP3 POP POP POP POP POP POP POP DUP2 PUSH1 0x20 ADD DUP2 SWAP1 MSTORE POP DUP7 DUP7 DUP1 DUP1 PUSH1 0x1F ADD PUSH1 0x20 DUP1 SWAP2 DIV MUL PUSH1 0x20 ADD PUSH1 0x40 MLOAD SWAP1 DUP2 ADD PUSH1 0x40 MSTORE DUP1 SWAP4 SWAP3 SWAP2 SWAP1 DUP2 DUP2 MSTORE PUSH1 0x20 ADD DUP4 DUP4 DUP1 DUP3 DUP5 CALLDATACOPY PUSH0 DUP2 DUP5 ADD MSTORE PUSH1 0x1F NOT PUSH1 0x1F DUP3 ADD AND SWAP1 POP DUP1 DUP4 ADD SWAP3 POP POP POP POP POP POP POP DUP2 PUSH1 0x40 ADD DUP2 SWAP1 MSTORE POP DUP5 DUP5 DUP1 DUP1 PUSH1 0x1F ADD PUSH1 0x20 DUP1 SWAP2 DIV MUL PUSH1 0x20 ADD PUSH1 0x40 MLOAD SWAP1 DUP2 ADD PUSH1 0x40 MSTORE DUP1 SWAP4 SWAP3 SWAP2 SWAP1 DUP2 DUP2 MSTORE PUSH1 0x20 ADD DUP4 DUP4 DUP1 DUP3 DUP5 CALLDATACOPY PUSH0 DUP2 DUP5 ADD MSTORE PUSH1 0x1F NOT PUSH1 0x1F DUP3 ADD AND SWAP1 POP DUP1 DUP4 ADD SWAP3 POP POP POP POP POP POP POP DUP2 PUSH1 0x60 ADD DUP2 SWAP1 MSTORE POP DUP3 DUP3 DUP1 DUP1 PUSH1 0x1F ADD PUSH1 0x20 DUP1 SWAP2 DIV MUL PUSH1 0x20 ADD PUSH1 0x40 MLOAD SWAP1 DUP2 ADD PUSH1 0x40 MSTORE DUP1 SWAP4 SWAP3 SWAP2 SWAP1 DUP2 DUP2 MSTORE PUSH1 0x20 ADD DUP4 DUP4 DUP1 DUP3 DUP5 CALLDATACOPY PUSH0 DUP2 DUP5 ADD MSTORE PUSH1 0x1F NOT PUSH1 0x1F DUP3 ADD AND SWAP1 POP DUP1 DUP4 ADD SWAP3 POP POP POP POP POP POP POP DUP2 PUSH1 0x80 ADD DUP2 SWAP1 MSTORE POP PUSH1 0x1 DUP2 PUSH1 0xC0 ADD SWAP1 ISZERO ISZERO SWAP1 DUP2 ISZERO ISZERO DUP2 MSTORE POP POP CALLER DUP2 PUSH0 ADD SWAP1 PUSH20 0xFFFFFFFFFFFFFFFFFFFFFFFFFFFFFFFFFFFFFFFF AND SWAP1 DUP2 PUSH20 0xFFFFFFFFFFFFFFFFFFFFFFFFFFFFFFFFFFFFFFFF AND DUP2 MSTORE POP POP PUSH1 0x1 PUSH0 DUP2 SLOAD DUP1 SWAP3 SWAP2 SWAP1 PUSH2 0x98D SWAP1 PUSH2 0x1094 JUMP JUMPDEST SWAP2 SWAP1 POP SSTORE POP DUP1 PUSH1 0x2 PUSH0 PUSH1 0x1 SLOAD DUP2 MSTORE PUSH1 0x20 ADD SWAP1 DUP2 MSTORE PUSH1 0x20 ADD PUSH0 KECCAK256 PUSH0 DUP3 ADD MLOAD DUP2 PUSH0 ADD PUSH0 PUSH2 0x100 EXP DUP2 SLOAD DUP2 PUSH20 0xFFFFFFFFFFFFFFFFFFFFFFFFFFFFFFFFFFFFFFFF MUL NOT AND SWAP1 DUP4 PUSH20 0xFFFFFFFFFFFFFFFFFFFFFFFFFFFFFFFFFFFFFFFF AND MUL OR SWAP1 SSTORE POP PUSH1 0x20 DUP3 ADD MLOAD DUP2 PUSH1 0x1 ADD SWAP1 DUP2 PUSH2 0x9FF SWAP2 SWAP1 PUSH2 0x12A5 JUMP JUMPDEST POP PUSH1 0x40 DUP3 ADD MLOAD DUP2 PUSH1 0x2 ADD SWAP1 DUP2 PUSH2 0xA15 SWAP2 SWAP1 PUSH2 0x12A5 JUMP JUMPDEST POP PUSH1 0x60 DUP3 ADD MLOAD DUP2 PUSH1 0x3 ADD SWAP1 DUP2 PUSH2 0xA2B SWAP2 SWAP1 PUSH2 0x12A5 JUMP JUMPDEST POP PUSH1 0x80 DUP3 ADD MLOAD DUP2 PUSH1 0x4 ADD SWAP1 DUP2 PUSH2 0xA41 SWAP2 SWAP1 PUSH2 0x12A5 JUMP JUMPDEST POP PUSH1 0xA0 DUP3 ADD MLOAD DUP2 PUSH1 0x5 ADD SSTORE PUSH1 0xC0 DUP3 ADD MLOAD DUP2 PUSH1 0x6 ADD PUSH0 PUSH2 0x100 EXP DUP2 SLOAD DUP2 PUSH1 0xFF MUL NOT AND SWAP1 DUP4 ISZERO ISZERO MUL OR SWAP1 SSTORE POP SWAP1 POP POP POP POP POP POP POP POP POP POP POP JUMP JUMPDEST PUSH0 CALLVALUE GT PUSH2 0xABB JUMPI PUSH1 0x40 MLOAD PUSH32 0x8C379A000000000000000000000000000000000000000000000000000000000 DUP2 MSTORE PUSH1 0x4 ADD PUSH2 0xAB2 SWAP1 PUSH2 0x13E4 JUMP JUMPDEST PUSH1 0x40 MLOAD DUP1 SWAP2 SUB SWAP1 REVERT JUMPDEST PUSH1 0x1 ISZERO ISZERO PUSH1 0x2 PUSH0 DUP4 DUP2 MSTORE PUSH1 0x20 ADD SWAP1 DUP2 MSTORE PUSH1 0x20 ADD PUSH0 KECCAK256 PUSH1 0x6 ADD PUSH0 SWAP1 SLOAD SWAP1 PUSH2 0x100 EXP SWAP1 DIV PUSH1 0xFF AND ISZERO ISZERO EQ PUSH2 0xB22 JUMPI PUSH1 0x40 MLOAD PUSH32 0x8C379A000000000000000000000000000000000000000000000000000000000 DUP2 MSTORE PUSH1 0x4 ADD PUSH2 0xB19 SWAP1 PUSH2 0x144C JUMP JUMPDEST PUSH1 0x40 MLOAD DUP1 SWAP2 SUB SWAP1 REVERT JUMPDEST CALLVALUE PUSH1 0x2 PUSH0 DUP4 DUP2 MSTORE PUSH1 0x20 ADD SWAP1 DUP2 MSTORE PUSH1 0x20 ADD PUSH0 KECCAK256 PUSH1 0x5 ADD PUSH0 DUP3 DUP3 SLOAD PUSH2 0xB45 SWAP2 SWAP1 PUSH2 0x146A JUMP JUMPDEST SWAP3 POP POP DUP2 SWAP1 SSTORE POP POP JUMP JUMPDEST PUSH1 0x40 MLOAD DUP1 PUSH1 0xE0 ADD PUSH1 0x40 MSTORE DUP1 PUSH0 PUSH20 0xFFFFFFFFFFFFFFFFFFFFFFFFFFFFFFFFFFFFFFFF AND DUP2 MSTORE PUSH1 0x20 ADD PUSH1 0x60 DUP2 MSTORE PUSH1 0x20 ADD PUSH1 0x60 DUP2 MSTORE PUSH1 0x20 ADD PUSH1 0x60 DUP2 MSTORE PUSH1 0x20 ADD PUSH1 0x60 DUP2 MSTORE PUSH1 0x20 ADD PUSH0 DUP2 MSTORE PUSH1 0x20 ADD PUSH0 ISZERO ISZERO DUP2 MSTORE POP SWAP1 JUMP JUMPDEST PUSH0 DUP1 REVERT JUMPDEST PUSH0 DUP1 REVERT JUMPDEST PUSH0 DUP2 SWAP1 POP SWAP2 SWAP1 POP JUMP JUMPDEST PUSH2 0xBBB DUP2 PUSH2 0xBA9 JUMP JUMPDEST DUP2 EQ PUSH2 0xBC5 JUMPI PUSH0 DUP1 REVERT JUMPDEST POP JUMP JUMPDEST PUSH0 DUP2 CALLDATALOAD SWAP1 POP PUSH2 0xBD6 DUP2 PUSH2 0xBB2 JUMP JUMPDEST SWAP3 SWAP2 POP POP JUMP JUMPDEST PUSH0 PUSH1 0x20 DUP3 DUP5 SUB SLT ISZERO PUSH2 0xBF1 JUMPI PUSH2 0xBF0 PUSH2 0xBA1 JUMP JUMPDEST JUMPDEST PUSH0 PUSH2 0xBFE DUP5 DUP3 DUP6 ADD PUSH2 0xBC8 JUMP JUMPDEST SWAP2 POP POP SWAP3 SWAP2 POP POP JUMP JUMPDEST PUSH0 PUSH20 0xFFFFFFFFFFFFFFFFFFFFFFFFFFFFFFFFFFFFFFFF DUP3 AND SWAP1 POP SWAP2 SWAP1 POP JUMP JUMPDEST PUSH0 PUSH2 0xC30 DUP3 PUSH2 0xC07 JUMP JUMPDEST SWAP1 POP SWAP2 SWAP1 POP JUMP JUMPDEST PUSH2 0xC40 DUP2 PUSH2 0xC26 JUMP JUMPDEST DUP3 MSTORE POP POP JUMP JUMPDEST PUSH0 DUP2 MLOAD SWAP1 POP SWAP2 SWAP1 POP JUMP JUMPDEST PUSH0 DUP3 DUP3 MSTORE PUSH1 0x20 DUP3 ADD SWAP1 POP SWAP3 SWAP2 POP POP JUMP JUMPDEST DUP3 DUP2 DUP4 MCOPY PUSH0 DUP4 DUP4 ADD MSTORE POP POP POP JUMP JUMPDEST PUSH0 PUSH1 0x1F NOT PUSH1 0x1F DUP4 ADD AND SWAP1 POP SWAP2 SWAP1 POP JUMP JUMPDEST PUSH0 PUSH2 0xC88 DUP3 PUSH2 0xC46 JUMP JUMPDEST PUSH2 0xC92 DUP2 DUP6 PUSH2 0xC50 JUMP JUMPDEST SWAP4 POP PUSH2 0xCA2 DUP2 DUP6 PUSH1 0x20 DUP7 ADD PUSH2 0xC60 JUMP JUMPDEST PUSH2 0xCAB DUP2 PUSH2 0xC6E JUMP JUMPDEST DUP5 ADD SWAP2 POP POP SWAP3 SWAP2 POP POP JUMP JUMPDEST PUSH2 0xCBF DUP2 PUSH2 0xBA9 JUMP JUMPDEST DUP3 MSTORE POP POP JUMP JUMPDEST PUSH0 DUP2 ISZERO ISZERO SWAP1 POP SWAP2 SWAP1 POP JUMP JUMPDEST PUSH2 0xCD9 DUP2 PUSH2 0xCC5 JUMP JUMPDEST DUP3 MSTORE POP POP JUMP JUMPDEST PUSH0 PUSH1 0xE0 DUP3 ADD SWAP1 POP PUSH2 0xCF2 PUSH0 DUP4 ADD DUP11 PUSH2 0xC37 JUMP JUMPDEST DUP2 DUP2 SUB PUSH1 0x20 DUP4 ADD MSTORE PUSH2 0xD04 DUP2 DUP10 PUSH2 0xC7E JUMP JUMPDEST SWAP1 POP DUP2 DUP2 SUB PUSH1 0x40 DUP4 ADD MSTORE PUSH2 0xD18 DUP2 DUP9 PUSH2 0xC7E JUMP JUMPDEST SWAP1 POP DUP2 DUP2 SUB PUSH1 0x60 DUP4 ADD MSTORE PUSH2 0xD2C DUP2 DUP8 PUSH2 0xC7E JUMP JUMPDEST SWAP1 POP DUP2 DUP2 SUB PUSH1 0x80 DUP4 ADD MSTORE PUSH2 0xD40 DUP2 DUP7 PUSH2 0xC7E JUMP JUMPDEST SWAP1 POP PUSH2 0xD4F PUSH1 0xA0 DUP4 ADD DUP6 PUSH2 0xCB6 JUMP JUMPDEST PUSH2 0xD5C PUSH1 0xC0 DUP4 ADD DUP5 PUSH2 0xCD0 JUMP JUMPDEST SWAP9 SWAP8 POP POP POP POP POP POP POP POP JUMP JUMPDEST PUSH0 PUSH1 0x20 DUP3 ADD SWAP1 POP PUSH2 0xD7B PUSH0 DUP4 ADD DUP5 PUSH2 0xCB6 JUMP JUMPDEST SWAP3 SWAP2 POP POP JUMP JUMPDEST PUSH0 DUP1 REVERT JUMPDEST PUSH0 DUP1 REVERT JUMPDEST PUSH0 DUP1 REVERT JUMPDEST PUSH0 DUP1 DUP4 PUSH1 0x1F DUP5 ADD SLT PUSH2 0xDA2 JUMPI PUSH2 0xDA1 PUSH2 0xD81 JUMP JUMPDEST JUMPDEST DUP3 CALLDATALOAD SWAP1 POP PUSH8 0xFFFFFFFFFFFFFFFF DUP2 GT ISZERO PUSH2 0xDBF JUMPI PUSH2 0xDBE PUSH2 0xD85 JUMP JUMPDEST JUMPDEST PUSH1 0x20 DUP4 ADD SWAP2 POP DUP4 PUSH1 0x1 DUP3 MUL DUP4 ADD GT ISZERO PUSH2 0xDDB JUMPI PUSH2 0xDDA PUSH2 0xD89 JUMP JUMPDEST JUMPDEST SWAP3 POP SWAP3 SWAP1 POP JUMP JUMPDEST PUSH0 DUP1 PUSH0 DUP1 PUSH0 DUP1 PUSH0 DUP1 PUSH1 0x80 DUP10 DUP12 SUB SLT ISZERO PUSH2 0xDFE JUMPI PUSH2 0xDFD PUSH2 0xBA1 JUMP JUMPDEST JUMPDEST PUSH0 DUP10 ADD CALLDATALOAD PUSH8 0xFFFFFFFFFFFFFFFF DUP2 GT ISZERO PUSH2 0xE1B JUMPI PUSH2 0xE1A PUSH2 0xBA5 JUMP JUMPDEST JUMPDEST PUSH2 0xE27 DUP12 DUP3 DUP13 ADD PUSH2 0xD8D JUMP JUMPDEST SWAP9 POP SWAP9 POP POP PUSH1 0x20 DUP10 ADD CALLDATALOAD PUSH8 0xFFFFFFFFFFFFFFFF DUP2 GT ISZERO PUSH2 0xE4A JUMPI PUSH2 0xE49 PUSH2 0xBA5 JUMP JUMPDEST JUMPDEST PUSH2 0xE56 DUP12 DUP3 DUP13 ADD PUSH2 0xD8D JUMP JUMPDEST SWAP7 POP SWAP7 POP POP PUSH1 0x40 DUP10 ADD CALLDATALOAD PUSH8 0xFFFFFFFFFFFFFFFF DUP2 GT ISZERO PUSH2 0xE79 JUMPI PUSH2 0xE78 PUSH2 0xBA5 JUMP JUMPDEST JUMPDEST PUSH2 0xE85 DUP12 DUP3 DUP13 ADD PUSH2 0xD8D JUMP JUMPDEST SWAP5 POP SWAP5 POP POP PUSH1 0x60 DUP10 ADD CALLDATALOAD PUSH8 0xFFFFFFFFFFFFFFFF DUP2 GT ISZERO PUSH2 0xEA8 JUMPI PUSH2 0xEA7 PUSH2 0xBA5 JUMP JUMPDEST JUMPDEST PUSH2 0xEB4 DUP12 DUP3 DUP13 ADD PUSH2 0xD8D JUMP JUMPDEST SWAP3 POP SWAP3 POP POP SWAP3 SWAP6 SWAP9 POP SWAP3 SWAP6 SWAP9 SWAP1 SWAP4 SWAP7 POP JUMP JUMPDEST PUSH32 0x4E487B7100000000000000000000000000000000000000000000000000000000 PUSH0 MSTORE PUSH1 0x22 PUSH1 0x4 MSTORE PUSH1 0x24 PUSH0 REVERT JUMPDEST PUSH0 PUSH1 0x2 DUP3 DIV SWAP1 POP PUSH1 0x1 DUP3 AND DUP1 PUSH2 0xF0A JUMPI PUSH1 0x7F DUP3 AND SWAP2 POP JUMPDEST PUSH1 0x20 DUP3 LT DUP2 SUB PUSH2 0xF1D JUMPI PUSH2 0xF1C PUSH2 0xEC6 JUMP JUMPDEST JUMPDEST POP SWAP2 SWAP1 POP JUMP JUMPDEST PUSH32 0x596F7520666F206E6F742068617665207065726D697373696F6E000000000000 PUSH0 DUP3 ADD MSTORE POP JUMP JUMPDEST PUSH0 PUSH2 0xF57 PUSH1 0x1A DUP4 PUSH2 0xC50 JUMP JUMPDEST SWAP2 POP PUSH2 0xF62 DUP3 PUSH2 0xF23 JUMP JUMPDEST PUSH1 0x20 DUP3 ADD SWAP1 POP SWAP2 SWAP1 POP JUMP JUMPDEST PUSH0 PUSH1 0x20 DUP3 ADD SWAP1 POP DUP2 DUP2 SUB PUSH0 DUP4 ADD MSTORE PUSH2 0xF84 DUP2 PUSH2 0xF4B JUMP JUMPDEST SWAP1 POP SWAP2 SWAP1 POP JUMP JUMPDEST PUSH32 0x20546869732063616D706169676E20697320636C6F7365640000000000000000 PUSH0 DUP3 ADD MSTORE POP JUMP JUMPDEST PUSH0 PUSH2 0xFBF PUSH1 0x18 DUP4 PUSH2 0xC50 JUMP JUMPDEST SWAP2 POP PUSH2 0xFCA DUP3 PUSH2 0xF8B JUMP JUMPDEST PUSH1 0x20 DUP3 ADD SWAP1 POP SWAP2 SWAP1 POP JUMP JUMPDEST PUSH0 PUSH1 0x20 DUP3 ADD SWAP1 POP DUP2 DUP2 SUB PUSH0 DUP4 ADD MSTORE PUSH2 0xFEC DUP2 PUSH2 0xFB3 JUMP JUMPDEST SWAP1 POP SWAP2 SWAP1 POP JUMP JUMPDEST PUSH32 0x4E487B7100000000000000000000000000000000000000000000000000000000 PUSH0 MSTORE PUSH1 0x11 PUSH1 0x4 MSTORE PUSH1 0x24 PUSH0 REVERT JUMPDEST PUSH0 PUSH2 0x102A DUP3 PUSH2 0xBA9 JUMP JUMPDEST SWAP2 POP PUSH2 0x1035 DUP4 PUSH2 0xBA9 JUMP JUMPDEST SWAP3 POP DUP3 DUP3 SUB SWAP1 POP DUP2 DUP2 GT ISZERO PUSH2 0x104D JUMPI PUSH2 0x104C PUSH2 0xFF3 JUMP JUMPDEST JUMPDEST SWAP3 SWAP2 POP POP JUMP JUMPDEST PUSH0 DUP2 SWAP1 POP SWAP3 SWAP2 POP POP JUMP JUMPDEST POP JUMP JUMPDEST PUSH0 PUSH2 0x106B PUSH0 DUP4 PUSH2 0x1053 JUMP JUMPDEST SWAP2 POP PUSH2 0x1076 DUP3 PUSH2 0x105D JUMP JUMPDEST PUSH0 DUP3 ADD SWAP1 POP SWAP2 SWAP1 POP JUMP JUMPDEST PUSH0 PUSH2 0x108A DUP3 PUSH2 0x1060 JUMP JUMPDEST SWAP2 POP DUP2 SWAP1 POP SWAP2 SWAP1 POP JUMP JUMPDEST PUSH0 PUSH2 0x109E DUP3 PUSH2 0xBA9 JUMP JUMPDEST SWAP2 POP PUSH32 0xFFFFFFFFFFFFFFFFFFFFFFFFFFFFFFFFFFFFFFFFFFFFFFFFFFFFFFFFFFFFFFFF DUP3 SUB PUSH2 0x10D0 JUMPI PUSH2 0x10CF PUSH2 0xFF3 JUMP JUMPDEST JUMPDEST PUSH1 0x1 DUP3 ADD SWAP1 POP SWAP2 SWAP1 POP JUMP JUMPDEST PUSH32 0x4E487B7100000000000000000000000000000000000000000000000000000000 PUSH0 MSTORE PUSH1 0x41 PUSH1 0x4 MSTORE PUSH1 0x24 PUSH0 REVERT JUMPDEST PUSH0 DUP2 SWAP1 POP DUP2 PUSH0 MSTORE PUSH1 0x20 PUSH0 KECCAK256 SWAP1 POP SWAP2 SWAP1 POP JUMP JUMPDEST PUSH0 PUSH1 0x20 PUSH1 0x1F DUP4 ADD DIV SWAP1 POP SWAP2 SWAP1 POP JUMP JUMPDEST PUSH0 DUP3 DUP3 SHL SWAP1 POP SWAP3 SWAP2 POP POP JUMP JUMPDEST PUSH0 PUSH1 0x8 DUP4 MUL PUSH2 0x1164 PUSH32 0xFFFFFFFFFFFFFFFFFFFFFFFFFFFFFFFFFFFFFFFFFFFFFFFFFFFFFFFFFFFFFFFF DUP3 PUSH2 0x1129 JUMP JUMPDEST PUSH2 0x116E DUP7 DUP4 PUSH2 0x1129 JUMP JUMPDEST SWAP6 POP DUP1 NOT DUP5 AND SWAP4 POP DUP1 DUP7 AND DUP5 OR SWAP3 POP POP POP SWAP4 SWAP3 POP POP POP JUMP JUMPDEST PUSH0 DUP2 SWAP1 POP SWAP2 SWAP1 POP JUMP JUMPDEST PUSH0 PUSH2 0x11A9 PUSH2 0x11A4 PUSH2 0x119F DUP5 PUSH2 0xBA9 JUMP JUMPDEST PUSH2 0x1186 JUMP JUMPDEST PUSH2 0xBA9 JUMP JUMPDEST SWAP1 POP SWAP2 SWAP1 POP JUMP JUMPDEST PUSH0 DUP2 SWAP1 POP SWAP2 SWAP1 POP JUMP JUMPDEST PUSH2 0x11C2 DUP4 PUSH2 0x118F JUMP JUMPDEST PUSH2 0x11D6 PUSH2 0x11CE DUP3 PUSH2 0x11B0 JUMP JUMPDEST DUP5 DUP5 SLOAD PUSH2 0x1135 JUMP JUMPDEST DUP3 SSTORE POP POP POP POP JUMP JUMPDEST PUSH0 SWAP1 JUMP JUMPDEST PUSH2 0x11EA PUSH2 0x11DE JUMP JUMPDEST PUSH2 0x11F5 DUP2 DUP5 DUP5 PUSH2 0x11B9 JUMP JUMPDEST POP POP POP JUMP JUMPDEST JUMPDEST DUP2 DUP2 LT ISZERO PUSH2 0x1218 JUMPI PUSH2 0x120D PUSH0 DUP3 PUSH2 0x11E2 JUMP JUMPDEST PUSH1 0x1 DUP2 ADD SWAP1 POP PUSH2 0x11FB JUMP JUMPDEST POP POP JUMP JUMPDEST PUSH1 0x1F DUP3 GT ISZERO PUSH2 0x125D JUMPI PUSH2 0x122E DUP2 PUSH2 0x1108 JUMP JUMPDEST PUSH2 0x1237 DUP5 PUSH2 0x111A JUMP JUMPDEST DUP2 ADD PUSH1 0x20 DUP6 LT ISZERO PUSH2 0x1246 JUMPI DUP2 SWAP1 POP JUMPDEST PUSH2 0x125A PUSH2 0x1252 DUP6 PUSH2 0x111A JUMP JUMPDEST DUP4 ADD DUP3 PUSH2 0x11FA JUMP JUMPDEST POP POP JUMPDEST POP POP POP JUMP JUMPDEST PUSH0 DUP3 DUP3 SHR SWAP1 POP SWAP3 SWAP2 POP POP JUMP JUMPDEST PUSH0 PUSH2 0x127D PUSH0 NOT DUP5 PUSH1 0x8 MUL PUSH2 0x1262 JUMP JUMPDEST NOT DUP1 DUP4 AND SWAP2 POP POP SWAP3 SWAP2 POP POP JUMP JUMPDEST PUSH0 PUSH2 0x1295 DUP4 DUP4 PUSH2 0x126E JUMP JUMPDEST SWAP2 POP DUP3 PUSH1 0x2 MUL DUP3 OR SWAP1 POP SWAP3 SWAP2 POP POP JUMP JUMPDEST PUSH2 0x12AE DUP3 PUSH2 0xC46 JUMP JUMPDEST PUSH8 0xFFFFFFFFFFFFFFFF DUP2 GT ISZERO PUSH2 0x12C7 JUMPI PUSH2 0x12C6 PUSH2 0x10DB JUMP JUMPDEST JUMPDEST PUSH2 0x12D1 DUP3 SLOAD PUSH2 0xEF3 JUMP JUMPDEST PUSH2 0x12DC DUP3 DUP3 DUP6 PUSH2 0x121C JUMP JUMPDEST PUSH0 PUSH1 0x20 SWAP1 POP PUSH1 0x1F DUP4 GT PUSH1 0x1 DUP2 EQ PUSH2 0x130D JUMPI PUSH0 DUP5 ISZERO PUSH2 0x12FB JUMPI DUP3 DUP8 ADD MLOAD SWAP1 POP JUMPDEST PUSH2 0x1305 DUP6 DUP3 PUSH2 0x128A JUMP JUMPDEST DUP7 SSTORE POP PUSH2 0x136C JUMP JUMPDEST PUSH1 0x1F NOT DUP5 AND PUSH2 0x131B DUP7 PUSH2 0x1108 JUMP JUMPDEST PUSH0 JUMPDEST DUP3 DUP2 LT ISZERO PUSH2 0x1342 JUMPI DUP5 DUP10 ADD MLOAD DUP3 SSTORE PUSH1 0x1 DUP3 ADD SWAP2 POP PUSH1 0x20 DUP6 ADD SWAP5 POP PUSH1 0x20 DUP2 ADD SWAP1 POP PUSH2 0x131D JUMP JUMPDEST DUP7 DUP4 LT ISZERO PUSH2 0x135F JUMPI DUP5 DUP10 ADD MLOAD PUSH2 0x135B PUSH1 0x1F DUP10 AND DUP3 PUSH2 0x126E JUMP JUMPDEST DUP4 SSTORE POP JUMPDEST PUSH1 0x1 PUSH1 0x2 DUP9 MUL ADD DUP9 SSTORE POP POP POP JUMPDEST POP POP POP POP POP POP JUMP JUMPDEST PUSH32 0x596F75206D7573742073656E64206120646F6E6174696F6E2076616C75652067 PUSH0 DUP3 ADD MSTORE PUSH32 0x726561746572207468616E207A65726F3B200000000000000000000000000000 PUSH1 0x20 DUP3 ADD MSTORE POP JUMP JUMPDEST PUSH0 PUSH2 0x13CE PUSH1 0x32 DUP4 PUSH2 0xC50 JUMP JUMPDEST SWAP2 POP PUSH2 0x13D9 DUP3 PUSH2 0x1374 JUMP JUMPDEST PUSH1 0x40 DUP3 ADD SWAP1 POP SWAP2 SWAP1 POP JUMP JUMPDEST PUSH0 PUSH1 0x20 DUP3 ADD SWAP1 POP DUP2 DUP2 SUB PUSH0 DUP4 ADD MSTORE PUSH2 0x13FB DUP2 PUSH2 0x13C2 JUMP JUMPDEST SWAP1 POP SWAP2 SWAP1 POP JUMP JUMPDEST PUSH32 0x2043616E6E6F7420646F6E61746520746F20746869732063616D706169676E00 PUSH0 DUP3 ADD MSTORE POP JUMP JUMPDEST PUSH0 PUSH2 0x1436 PUSH1 0x1F DUP4 PUSH2 0xC50 JUMP JUMPDEST SWAP2 POP PUSH2 0x1441 DUP3 PUSH2 0x1402 JUMP JUMPDEST PUSH1 0x20 DUP3 ADD SWAP1 POP SWAP2 SWAP1 POP JUMP JUMPDEST PUSH0 PUSH1 0x20 DUP3 ADD SWAP1 POP DUP2 DUP2 SUB PUSH0 DUP4 ADD MSTORE PUSH2 0x1463 DUP2 PUSH2 0x142A JUMP JUMPDEST SWAP1 POP SWAP2 SWAP1 POP JUMP JUMPDEST PUSH0 PUSH2 0x1474 DUP3 PUSH2 0xBA9 JUMP JUMPDEST SWAP2 POP PUSH2 0x147F DUP4 PUSH2 0xBA9 JUMP JUMPDEST SWAP3 POP DUP3 DUP3 ADD SWAP1 POP DUP1 DUP3 GT ISZERO PUSH2 0x1497 JUMPI PUSH2 0x1496 PUSH2 0xFF3 JUMP JUMPDEST JUMPDEST SWAP3 SWAP2 POP POP JUMP INVALID LOG2 PUSH5 0x6970667358 0x22 SLT KECCAK256 SWAP6 LOG2 0xC8 PUSH22 0xC98BAEDBC083B60C4AC248C2423C7F5A97C4D2762BF7 MLOAD AND 0xA8 0x24 BYTE XOR PUSH5 0x736F6C6343 STOP ADDMOD BYTE STOP CALLER "
				},
				"gasEstimates": {
					"creation": {
						"codeDepositCost": "1066200",
						"executionCost": "28215",
						"totalCost": "1094415"
					},
					"external": {
						"addCampaign(string,string,string,string)": "infinite",
						"campaigns(uint256)": "infinite",
						"donate(uint256)": "infinite",
						"fee()": "2468",
						"nextId()": "2447",
						"withdraw(uint256)": "infinite"
					}
				},
				"methodIdentifiers": {
					"addCampaign(string,string,string,string)": "ec671486",
					"campaigns(uint256)": "141961bc",
					"donate(uint256)": "f14faf6f",
					"fee()": "ddca3f43",
					"nextId()": "61b8ce8c",
					"withdraw(uint256)": "2e1a7d4d"
				}
			},
			"storageLayout": {
				"storage": [
					{
						"astId": 19,
						"contract": "contracts/DonateCrypto.sol:DonateCrypto",
						"label": "fee",
						"offset": 0,
						"slot": "0",
						"type": "t_uint256"
					},
					{
						"astId": 22,
						"contract": "contracts/DonateCrypto.sol:DonateCrypto",
						"label": "nextId",
						"offset": 0,
						"slot": "1",
						"type": "t_uint256"
					},
					{
						"astId": 27,
						"contract": "contracts/DonateCrypto.sol:DonateCrypto",
						"label": "campaigns",
						"offset": 0,
						"slot": "2",
						"type": "t_mapping(t_uint256,t_struct(Campaign)16_storage)"
					}
				],
				"types": {
					"t_address": {
						"encoding": "inplace",
						"label": "address",
						"numberOfBytes": "20"
					},
					"t_bool": {
						"encoding": "inplace",
						"label": "bool",
						"numberOfBytes": "1"
					},
					"t_mapping(t_uint256,t_struct(Campaign)16_storage)": {
						"encoding": "mapping",
						"key": "t_uint256",
						"label": "mapping(uint256 => struct Campaign)",
						"numberOfBytes": "32",
						"value": "t_struct(Campaign)16_storage"
					},
					"t_string_storage": {
						"encoding": "bytes",
						"label": "string",
						"numberOfBytes": "32"
					},
					"t_struct(Campaign)16_storage": {
						"encoding": "inplace",
						"label": "struct Campaign",
						"members": [
							{
								"astId": 3,
								"contract": "contracts/DonateCrypto.sol:DonateCrypto",
								"label": "author",
								"offset": 0,
								"slot": "0",
								"type": "t_address"
							},
							{
								"astId": 5,
								"contract": "contracts/DonateCrypto.sol:DonateCrypto",
								"label": "title",
								"offset": 0,
								"slot": "1",
								"type": "t_string_storage"
							},
							{
								"astId": 7,
								"contract": "contracts/DonateCrypto.sol:DonateCrypto",
								"label": "description",
								"offset": 0,
								"slot": "2",
								"type": "t_string_storage"
							},
							{
								"astId": 9,
								"contract": "contracts/DonateCrypto.sol:DonateCrypto",
								"label": "videoUrl",
								"offset": 0,
								"slot": "3",
								"type": "t_string_storage"
							},
							{
								"astId": 11,
								"contract": "contracts/DonateCrypto.sol:DonateCrypto",
								"label": "imageUrl",
								"offset": 0,
								"slot": "4",
								"type": "t_string_storage"
							},
							{
								"astId": 13,
								"contract": "contracts/DonateCrypto.sol:DonateCrypto",
								"label": "balance",
								"offset": 0,
								"slot": "5",
								"type": "t_uint256"
							},
							{
								"astId": 15,
								"contract": "contracts/DonateCrypto.sol:DonateCrypto",
								"label": "active",
								"offset": 0,
								"slot": "6",
								"type": "t_bool"
							}
						],
						"numberOfBytes": "224"
					},
					"t_uint256": {
						"encoding": "inplace",
						"label": "uint256",
						"numberOfBytes": "32"
					}
				}
			},
			"userdoc": {
				"kind": "user",
				"methods": {},
				"version": 1
			}
		}
	}
}